{"abi":[{"type":"constructor","inputs":[],"stateMutability":"nonpayable"},{"type":"function","name":"addPool","inputs":[{"name":"_token","type":"address","internalType":"contract IERC20"},{"name":"_rewardRate","type":"uint256","internalType":"uint256"}],"outputs":[],"stateMutability":"nonpayable"},{"type":"function","name":"claimRewards","inputs":[{"name":"_pid","type":"uint256","internalType":"uint256"}],"outputs":[],"stateMutability":"nonpayable"},{"type":"function","name":"deposit","inputs":[{"name":"_pid","type":"uint256","internalType":"uint256"},{"name":"_amount","type":"uint256","internalType":"uint256"}],"outputs":[],"stateMutability":"nonpayable"},{"type":"function","name":"owner","inputs":[],"outputs":[{"name":"","type":"address","internalType":"address"}],"stateMutability":"view"},{"type":"function","name":"poolCount","inputs":[],"outputs":[{"name":"","type":"uint256","internalType":"uint256"}],"stateMutability":"view"},{"type":"function","name":"pools","inputs":[{"name":"","type":"uint256","internalType":"uint256"}],"outputs":[{"name":"token","type":"address","internalType":"contract IERC20"},{"name":"totalStaked","type":"uint256","internalType":"uint256"},{"name":"rewardRate","type":"uint256","internalType":"uint256"},{"name":"lastUpdateTime","type":"uint256","internalType":"uint256"},{"name":"rewardPerTokenStored","type":"uint256","internalType":"uint256"}],"stateMutability":"view"},{"type":"function","name":"renounceOwnership","inputs":[],"outputs":[],"stateMutability":"nonpayable"},{"type":"function","name":"transferOwnership","inputs":[{"name":"newOwner","type":"address","internalType":"address"}],"outputs":[],"stateMutability":"nonpayable"},{"type":"function","name":"updatePool","inputs":[{"name":"_pid","type":"uint256","internalType":"uint256"}],"outputs":[],"stateMutability":"nonpayable"},{"type":"function","name":"userInfo","inputs":[{"name":"","type":"uint256","internalType":"uint256"},{"name":"","type":"address","internalType":"address"}],"outputs":[{"name":"stakedAmount","type":"uint256","internalType":"uint256"},{"name":"rewardDebt","type":"uint256","internalType":"uint256"}],"stateMutability":"view"},{"type":"function","name":"withdraw","inputs":[{"name":"_pid","type":"uint256","internalType":"uint256"},{"name":"_amount","type":"uint256","internalType":"uint256"}],"outputs":[],"stateMutability":"nonpayable"},{"type":"event","name":"ClaimRewards","inputs":[{"name":"user","type":"address","indexed":true,"internalType":"address"},{"name":"pid","type":"uint256","indexed":true,"internalType":"uint256"},{"name":"amount","type":"uint256","indexed":false,"internalType":"uint256"}],"anonymous":false},{"type":"event","name":"Deposit","inputs":[{"name":"user","type":"address","indexed":true,"internalType":"address"},{"name":"pid","type":"uint256","indexed":true,"internalType":"uint256"},{"name":"amount","type":"uint256","indexed":false,"internalType":"uint256"}],"anonymous":false},{"type":"event","name":"OwnershipTransferred","inputs":[{"name":"previousOwner","type":"address","indexed":true,"internalType":"address"},{"name":"newOwner","type":"address","indexed":true,"internalType":"address"}],"anonymous":false},{"type":"event","name":"Withdraw","inputs":[{"name":"user","type":"address","indexed":true,"internalType":"address"},{"name":"pid","type":"uint256","indexed":true,"internalType":"uint256"},{"name":"amount","type":"uint256","indexed":false,"internalType":"uint256"}],"anonymous":false},{"type":"error","name":"OwnableInvalidOwner","inputs":[{"name":"owner","type":"address","internalType":"address"}]},{"type":"error","name":"OwnableUnauthorizedAccount","inputs":[{"name":"account","type":"address","internalType":"address"}]},{"type":"error","name":"ReentrancyGuardReentrantCall","inputs":[]}],"bytecode":{"object":"0x608060405234801561001057600080fd5b506001600055338061003c57604051631e4fbdf760e01b81526000600482015260240160405180910390fd5b6100458161004b565b5061009d565b600180546001600160a01b038381166001600160a01b0319831681179093556040519116919082907f8be0079c531659141344cd1fd0a4f28419497f9722a3daafe3b4186f6b6457e090600090a35050565b610c3a806100ac6000396000f3fe608060405234801561001057600080fd5b50600436106100a95760003560e01c80638da5cb5b116100715780638da5cb5b1461010457806393f1a40b14610124578063ac4afa381461016b578063e2bbb158146101e4578063f2fde38b146101f7578063f525cb681461020a57600080fd5b80630962ef79146100ae57806332a9caba146100c3578063441a3e70146100d657806351eb05a6146100e9578063715018a6146100fc575b600080fd5b6100c16100bc366004610a65565b610221565b005b6100c16100d1366004610a93565b610317565b6100c16100e4366004610abf565b6103ae565b6100c16100f7366004610a65565b6105ad565b6100c1610651565b6001546040516001600160a01b0390911681526020015b60405180910390f35b610156610132366004610ae1565b60036020908152600092835260408084209091529082529020805460019091015482565b6040805192835260208301919091520161011b565b6101b2610179366004610a65565b6002602081905260009182526040909120805460018201549282015460038301546004909301546001600160a01b039092169392909185565b604080516001600160a01b0390961686526020860194909452928401919091526060830152608082015260a00161011b565b6100c16101f2366004610abf565b610665565b6100c1610205366004610b11565b610818565b61021360045481565b60405190815260200161011b565b610229610853565b610232816105ad565b600081815260026020908152604080832060038352818420338552909252822060018101546004830154825493949293670de0b6b3a76400009161027591610b4b565b61027f9190610b68565b6102899190610b8a565b905080156102a75782546102a7906001600160a01b0316338361087d565b60048301548254670de0b6b3a7640000916102c191610b4b565b6102cb9190610b68565b6001830155604051818152849033907f674a8930d4166ce2352c3dc1e9ff633595db479f71f3741270a0a73a52cb7b0f9060200160405180910390a35050506103146001600055565b50565b61031f6109e6565b6040805160a0810182526001600160a01b03848116825260006020808401828152848601878152426060870190815260808701858152600480548752600295869052988620975188546001600160a01b0319169716969096178755915160018701555191850191909155516003840155905191830191909155815491906103a583610b9d565b91905055505050565b6103b6610853565b600082815260026020908152604080832060038352818420338552909252909120805483111561042d5760405162461bcd60e51b815260206004820152601c60248201527f57697468647261773a206e6f7420656e6f7567682062616c616e63650000000060448201526064015b60405180910390fd5b610436846105ad565b60008160010154670de0b6b3a76400008460040154846000015461045a9190610b4b565b6104649190610b68565b61046e9190610b8a565b9050801561048c57825461048c906001600160a01b0316338361087d565b831561053c57838260000160008282546104a69190610b8a565b92505081905550838360010160008282546104c19190610b8a565b9091555050825460405163a9059cbb60e01b8152336004820152602481018690526001600160a01b039091169063a9059cbb906044016020604051808303816000875af1158015610516573d6000803e3d6000fd5b505050506040513d601f19601f8201168201806040525081019061053a9190610bb6565b505b60048301548254670de0b6b3a76400009161055691610b4b565b6105609190610b68565b6001830155604051848152859033907ff279e6a1f5e320cca91135676d9cb6e44ca8a08c0b88342bcdb1144f6511b5689060200160405180910390a35050506105a96001600055565b5050565b6000818152600260205260409020600381015442116105ca575050565b80600101546000036105e0574260039091015550565b60008160030154426105f29190610b8a565b905060008260020154826106069190610b4b565b600184015490915061062082670de0b6b3a7640000610b4b565b61062a9190610b68565b83600401600082825461063d9190610bd8565b909155505042600390930192909255505050565b6106596109e6565b6106636000610a13565b565b61066d610853565b600082815260026020908152604080832060038352818420338552909252909120610697846105ad565b8054156106f65760008160010154670de0b6b3a7640000846004015484600001546106c29190610b4b565b6106cc9190610b68565b6106d69190610b8a565b905080156106f45782546106f4906001600160a01b0316338361087d565b505b82156107ac5781546040516323b872dd60e01b8152336004820152306024820152604481018590526001600160a01b03909116906323b872dd906064016020604051808303816000875af1158015610752573d6000803e3d6000fd5b505050506040513d601f19601f820116820180604052508101906107769190610bb6565b508281600001600082825461078b9190610bd8565b92505081905550828260010160008282546107a69190610bd8565b90915550505b60048201548154670de0b6b3a7640000916107c691610b4b565b6107d09190610b68565b6001820155604051838152849033907f90890809c654f11d6e72a28fa60149770a0d11ec6c92319d6ceb2bb0a4ea1a159060200160405180910390a350506105a96001600055565b6108206109e6565b6001600160a01b03811661084a57604051631e4fbdf760e01b815260006004820152602401610424565b61031481610a13565b60026000540361087657604051633ee5aeb560e01b815260040160405180910390fd5b6002600055565b6040516370a0823160e01b81523060048201526000906001600160a01b038516906370a0823190602401602060405180830381865afa1580156108c4573d6000803e3d6000fd5b505050506040513d601f19601f820116820180604052508101906108e89190610beb565b90508082111561096b5760405163a9059cbb60e01b81526001600160a01b0384811660048301526024820183905285169063a9059cbb906044016020604051808303816000875af1158015610941573d6000803e3d6000fd5b505050506040513d601f19601f820116820180604052508101906109659190610bb6565b506109e0565b60405163a9059cbb60e01b81526001600160a01b0384811660048301526024820184905285169063a9059cbb906044016020604051808303816000875af11580156109ba573d6000803e3d6000fd5b505050506040513d601f19601f820116820180604052508101906109de9190610bb6565b505b50505050565b6001546001600160a01b031633146106635760405163118cdaa760e01b8152336004820152602401610424565b600180546001600160a01b038381166001600160a01b0319831681179093556040519116919082907f8be0079c531659141344cd1fd0a4f28419497f9722a3daafe3b4186f6b6457e090600090a35050565b600060208284031215610a7757600080fd5b5035919050565b6001600160a01b038116811461031457600080fd5b60008060408385031215610aa657600080fd5b8235610ab181610a7e565b946020939093013593505050565b60008060408385031215610ad257600080fd5b50508035926020909101359150565b60008060408385031215610af457600080fd5b823591506020830135610b0681610a7e565b809150509250929050565b600060208284031215610b2357600080fd5b8135610b2e81610a7e565b9392505050565b634e487b7160e01b600052601160045260246000fd5b8082028115828204841417610b6257610b62610b35565b92915050565b600082610b8557634e487b7160e01b600052601260045260246000fd5b500490565b81810381811115610b6257610b62610b35565b600060018201610baf57610baf610b35565b5060010190565b600060208284031215610bc857600080fd5b81518015158114610b2e57600080fd5b80820180821115610b6257610b62610b35565b600060208284031215610bfd57600080fd5b505191905056fea2646970667358221220a616696c6f781864906e59b0440c335719da3bf6317461a621c21a61d3817ac964736f6c63430008180033","linkReferences":{}},"methodIdentifiers":{"addPool(address,uint256)":"32a9caba","claimRewards(uint256)":"0962ef79","deposit(uint256,uint256)":"e2bbb158","owner()":"8da5cb5b","poolCount()":"f525cb68","pools(uint256)":"ac4afa38","renounceOwnership()":"715018a6","transferOwnership(address)":"f2fde38b","updatePool(uint256)":"51eb05a6","userInfo(uint256,address)":"93f1a40b","withdraw(uint256,uint256)":"441a3e70"},"id":31}