{"abi":[{"type":"constructor","inputs":[],"stateMutability":"nonpayable"},{"type":"function","name":"INITIAL_PRICE","inputs":[],"outputs":[{"name":"","type":"uint256","internalType":"uint256"}],"stateMutability":"view"},{"type":"function","name":"K","inputs":[],"outputs":[{"name":"","type":"uint256","internalType":"uint256"}],"stateMutability":"view"},{"type":"function","name":"Owner","inputs":[],"outputs":[{"name":"","type":"address","internalType":"address"}],"stateMutability":"view"},{"type":"function","name":"addressToMemeTokenMapping","inputs":[{"name":"","type":"address","internalType":"address"}],"outputs":[{"name":"name","type":"string","internalType":"string"},{"name":"symbol","type":"string","internalType":"string"},{"name":"description","type":"string","internalType":"string"},{"name":"tokenImageUrl","type":"string","internalType":"string"},{"name":"fundingRaised","type":"uint256","internalType":"uint256"},{"name":"tokenAddress","type":"address","internalType":"address"},{"name":"creatorAddress","type":"address","internalType":"address"}],"stateMutability":"view"},{"type":"function","name":"buyMemeToken","inputs":[{"name":"memeTokenAddress","type":"address","internalType":"address"},{"name":"tokenQty","type":"uint256","internalType":"uint256"}],"outputs":[{"name":"","type":"uint256","internalType":"uint256"}],"stateMutability":"payable"},{"type":"function","name":"calculateCost","inputs":[{"name":"currentSupply","type":"uint256","internalType":"uint256"},{"name":"tokensToBuy","type":"uint256","internalType":"uint256"}],"outputs":[{"name":"","type":"uint256","internalType":"uint256"}],"stateMutability":"pure"},{"type":"function","name":"createMemeToken","inputs":[{"name":"name","type":"string","internalType":"string"},{"name":"symbol","type":"string","internalType":"string"},{"name":"imageUrl","type":"string","internalType":"string"},{"name":"description","type":"string","internalType":"string"},{"name":"airdropQty","type":"uint256","internalType":"uint256"}],"outputs":[{"name":"","type":"address","internalType":"address"}],"stateMutability":"payable"},{"type":"function","name":"getAllMemeTokens","inputs":[],"outputs":[{"name":"","type":"tuple[]","internalType":"struct RootFun.memeToken[]","components":[{"name":"name","type":"string","internalType":"string"},{"name":"symbol","type":"string","internalType":"string"},{"name":"description","type":"string","internalType":"string"},{"name":"tokenImageUrl","type":"string","internalType":"string"},{"name":"fundingRaised","type":"uint256","internalType":"uint256"},{"name":"tokenAddress","type":"address","internalType":"address"},{"name":"creatorAddress","type":"address","internalType":"address"}]}],"stateMutability":"view"},{"type":"function","name":"getMemeToken","inputs":[{"name":"memeTokenAddress","type":"address","internalType":"address"}],"outputs":[{"name":"","type":"tuple","internalType":"struct RootFun.memeToken","components":[{"name":"name","type":"string","internalType":"string"},{"name":"symbol","type":"string","internalType":"string"},{"name":"description","type":"string","internalType":"string"},{"name":"tokenImageUrl","type":"string","internalType":"string"},{"name":"fundingRaised","type":"uint256","internalType":"uint256"},{"name":"tokenAddress","type":"address","internalType":"address"},{"name":"creatorAddress","type":"address","internalType":"address"}]}],"stateMutability":"view"},{"type":"function","name":"memeTokenAddresses","inputs":[{"name":"","type":"uint256","internalType":"uint256"}],"outputs":[{"name":"","type":"address","internalType":"address"}],"stateMutability":"view"},{"type":"function","name":"withdraw","inputs":[],"outputs":[],"stateMutability":"nonpayable"},{"type":"event","name":"MemeTokenCreated","inputs":[{"name":"memeTokenAddress","type":"address","indexed":true,"internalType":"address"},{"name":"name","type":"string","indexed":false,"internalType":"string"},{"name":"symbol","type":"string","indexed":false,"internalType":"string"},{"name":"description","type":"string","indexed":false,"internalType":"string"},{"name":"creatorAddress","type":"address","indexed":false,"internalType":"address"},{"name":"cost","type":"uint256","indexed":false,"internalType":"uint256"}],"anonymous":false}],"bytecode":{"object":"0x608060405234801561001057600080fd5b50600280546001600160a01b03191633179055612c9e806100326000396000f3fe608060405260043610620000a95760003560e01c806391d75448116200006c57806391d7544814620001a8578063a932492f14620001bf578063b4a99a4e14620001dc578063bcfeed9a14620001fe578063ce3946961462000225578063e823bfd5146200024a57600080fd5b8063130da96014620000ae57806313cb5ad614620000f15780633ccfd60b146200012f5780634d66252414620001495780637c5e2795146200017d575b600080fd5b348015620000bb57600080fd5b50620000d3620000cd366004620017eb565b62000261565b604051620000e897969594939291906200185a565b60405180910390f35b348015620000fe57600080fd5b506200011662000110366004620018d9565b620004e8565b6040516001600160a01b039091168152602001620000e8565b3480156200013c57600080fd5b506200014762000513565b005b3480156200015657600080fd5b506200016e62000168366004620017eb565b6200061d565b604051620000e8919062001996565b3480156200018a57600080fd5b5062000199651b48eb57e00081565b604051908152602001620000e8565b62000116620001b936600462001a56565b620008e4565b348015620001cc57600080fd5b5062000199661c6bf52634000081565b348015620001e957600080fd5b5060025462000116906001600160a01b031681565b3480156200020b57600080fd5b506200021662000bf2565b604051620000e8919062001b18565b3480156200023257600080fd5b50620001996200024436600462001b80565b62000f71565b620001996200025b36600462001ba3565b6200104a565b6001602052600090815260409020805481906200027e9062001bd2565b80601f0160208091040260200160405190810160405280929190818152602001828054620002ac9062001bd2565b8015620002fd5780601f10620002d157610100808354040283529160200191620002fd565b820191906000526020600020905b815481529060010190602001808311620002df57829003601f168201915b505050505090806001018054620003149062001bd2565b80601f0160208091040260200160405190810160405280929190818152602001828054620003429062001bd2565b8015620003935780601f10620003675761010080835404028352916020019162000393565b820191906000526020600020905b8154815290600101906020018083116200037557829003601f168201915b505050505090806002018054620003aa9062001bd2565b80601f0160208091040260200160405190810160405280929190818152602001828054620003d89062001bd2565b8015620004295780601f10620003fd5761010080835404028352916020019162000429565b820191906000526020600020905b8154815290600101906020018083116200040b57829003601f168201915b505050505090806003018054620004409062001bd2565b80601f01602080910402602001604051908101604052809291908181526020018280546200046e9062001bd2565b8015620004bf5780601f106200049357610100808354040283529160200191620004bf565b820191906000526020600020905b815481529060010190602001808311620004a157829003601f168201915b5050505060048301546005840154600690940154929390926001600160a01b0391821692501687565b60008181548110620004f957600080fd5b6000918252602090912001546001600160a01b0316905081565b6002546001600160a01b03163314620005735760405162461bcd60e51b815260206004820152601760248201527f4f6e6c79206f776e65722063616e20776974686472617700000000000000000060448201526064015b60405180910390fd5b4780156200061a576002546040516000916001600160a01b03169083908381818185875af1925050503d8060008114620005ca576040519150601f19603f3d011682016040523d82523d6000602084013e620005cf565b606091505b5050905080620006185760405162461bcd60e51b8152602060048201526013602482015272115512081d1c985b9cd9995c8819985a5b1959606a1b60448201526064016200056a565b505b50565b6200062762001778565b6001600160a01b03821660009081526001602052604090819020815160e081019092528054829082906200065b9062001bd2565b80601f0160208091040260200160405190810160405280929190818152602001828054620006899062001bd2565b8015620006da5780601f10620006ae57610100808354040283529160200191620006da565b820191906000526020600020905b815481529060010190602001808311620006bc57829003601f168201915b50505050508152602001600182018054620006f59062001bd2565b80601f0160208091040260200160405190810160405280929190818152602001828054620007239062001bd2565b8015620007745780601f10620007485761010080835404028352916020019162000774565b820191906000526020600020905b8154815290600101906020018083116200075657829003601f168201915b505050505081526020016002820180546200078f9062001bd2565b80601f0160208091040260200160405190810160405280929190818152602001828054620007bd9062001bd2565b80156200080e5780601f10620007e2576101008083540402835291602001916200080e565b820191906000526020600020905b815481529060010190602001808311620007f057829003601f168201915b50505050508152602001600382018054620008299062001bd2565b80601f0160208091040260200160405190810160405280929190818152602001828054620008579062001bd2565b8015620008a85780601f106200087c57610100808354040283529160200191620008a8565b820191906000526020600020905b8154815290600101906020018083116200088a57829003601f168201915b50505091835250506004820154602082015260058201546001600160a01b03908116604083015260069092015490911660609091015292915050565b600062000923606462000903670de0b6b3a7640000620f424062001c1e565b6200091090601462001c1e565b6200091c919062001c38565b8362000f71565b6200093590655af3107a400062001c5b565b341015620009925760405162461bcd60e51b815260206004820152602360248201527f666565206e6f74207061696420666f72206d656d65746f6b656e20637265617460448201526234b7b760e91b60648201526084016200056a565b600086866064620009af670de0b6b3a7640000620f424062001c1e565b620009bc90601462001c1e565b620009c8919062001c38565b3386604051620009d890620017c7565b620009e895949392919062001c71565b604051809103906000f08015801562000a05573d6000803e3d6000fd5b506040805160e0810182528981526020810189905290810186905260608101879052600060808201526001600160a01b03821660a08201523360c0820152909150819062000a5a655af3107a40003462001cc1565b8160800181815162000a6d919062001c5b565b90525060008054600180820183557f290decd9548b62a8d60345a988386fc84ba6bc95484008f6362f93160ef3e56390910180546001600160a01b0319166001600160a01b0386169081179091558252602052604090208151829190819062000ad7908262001d2c565b506020820151600182019062000aee908262001d2c565b506040820151600282019062000b05908262001d2c565b506060820151600382019062000b1c908262001d2c565b506080820151600482015560a08201516005820180546001600160a01b03199081166001600160a01b039384161790915560c090930151600690920180549093169181169190911790915582167f36c23443e06d3db7f49f89bc257dde9885006aae5e1eb0ec51aa6dd514f35cd68a8a893362000bcb606462000bab670de0b6b3a7640000620f424062001c1e565b62000bb890601462001c1e565b62000bc4919062001c38565b8c62000f71565b60405162000bde95949392919062001df9565b60405180910390a250979650505050505050565b600080546060919067ffffffffffffffff81111562000c155762000c15620019ab565b60405190808252806020026020018201604052801562000c5257816020015b62000c3e62001778565b81526020019060019003908162000c345790505b50905060005b60005481101562000f6b576001600080838154811062000c7c5762000c7c62001e56565b60009182526020808320909101546001600160a01b031683528201929092526040908101909120815160e0810190925280548290829062000cbd9062001bd2565b80601f016020809104026020016040519081016040528092919081815260200182805462000ceb9062001bd2565b801562000d3c5780601f1062000d105761010080835404028352916020019162000d3c565b820191906000526020600020905b81548152906001019060200180831162000d1e57829003601f168201915b5050505050815260200160018201805462000d579062001bd2565b80601f016020809104026020016040519081016040528092919081815260200182805462000d859062001bd2565b801562000dd65780601f1062000daa5761010080835404028352916020019162000dd6565b820191906000526020600020905b81548152906001019060200180831162000db857829003601f168201915b5050505050815260200160028201805462000df19062001bd2565b80601f016020809104026020016040519081016040528092919081815260200182805462000e1f9062001bd2565b801562000e705780601f1062000e445761010080835404028352916020019162000e70565b820191906000526020600020905b81548152906001019060200180831162000e5257829003601f168201915b5050505050815260200160038201805462000e8b9062001bd2565b80601f016020809104026020016040519081016040528092919081815260200182805462000eb99062001bd2565b801562000f0a5780601f1062000ede5761010080835404028352916020019162000f0a565b820191906000526020600020905b81548152906001019060200180831162000eec57829003601f168201915b50505091835250506004820154602082015260058201546001600160a01b039081166040830152600690920154909116606090910152825183908390811062000f575762000f5762001e56565b602090810291909101015260010162000c58565b50919050565b600080670de0b6b3a764000062000f89848662001c5b565b62000f9c90661c6bf52634000062001c1e565b62000fa8919062001c38565b90506000670de0b6b3a764000062000fc886661c6bf52634000062001c1e565b62000fd4919062001c38565b9050600062000fe3836200140b565b9050600062000ff2836200140b565b90506000661c6bf5263400006200100a838562001cc1565b62001024651b48eb57e000670de0b6b3a764000062001c1e565b62001030919062001c1e565b6200103c919062001c38565b955050505050505b92915050565b6001600160a01b03828116600090815260016020526040812060050154909116620010ae5760405162461bcd60e51b8152602060048201526013602482015272151bdad95b881a5cc81b9bdd081b1a5cdd1959606a1b60448201526064016200056a565b6001600160a01b03831660009081526001602052604090206004810154849066b1a2bc2ec500001015620011255760405162461bcd60e51b815260206004820152601f60248201527f46756e64696e672068617320616c7265616479206265656e207261697365640060448201526064016200056a565b6000816001600160a01b03166318160ddd6040518163ffffffff1660e01b8152600401602060405180830381865afa15801562001166573d6000803e3d6000fd5b505050506040513d601f19601f820116820180604052508101906200118c919062001e6c565b9050600081620011a8670de0b6b3a7640000620f424062001c1e565b620011b4919062001cc1565b90506000620011cc670de0b6b3a76400008362001c38565b90506000620011e4670de0b6b3a76400008962001c1e565b905081881115620012385760405162461bcd60e51b815260206004820152601b60248201527f4e6f7420656e6f75676820617661696c61626c6520737570706c79000000000060448201526064016200056a565b6000670de0b6b3a764000060646200125482620f424062001c1e565b6200126190601462001c1e565b6200126d919062001c38565b62001279908762001cc1565b62001285919062001c38565b9050600062001295828b62000f71565b905080341015620012e95760405162461bcd60e51b815260206004820152601b60248201527f496e636f72726563742076616c7565206f66204554482073656e74000000000060448201526064016200056a565b34886004016000828254620012ff919062001c5b565b9091555050600488015466b1a2bc2ec500001162001385576000620013248c62001488565b90506000606462001341670de0b6b3a7640000620f424062001c1e565b6200134e90601462001c1e565b6200135a919062001c38565b60048b01549091506000620013718f8484620015af565b90506200137f8482620016f3565b50505050505b6040516394bf804d60e01b8152600481018490523360248201526001600160a01b038816906394bf804d906044016020604051808303816000875af1158015620013d3573d6000803e3d6000fd5b505050506040513d601f19601f82011682018060405250810190620013f9919062001e6c565b5060019b9a5050505050505050505050565b6000670de0b6b3a7640000808360015b601481116200147e576200143881670de0b6b3a764000062001c1e565b62001444838562001c1e565b62001450919062001c38565b92506200145e838562001c5b565b9350600183106200147e5780620014758162001e86565b9150506200141b565b5091949350505050565b600080735c69bee701ef814a2b6a3edd4b1652cb9cc5aa6f90506000737a250d5630b4cf539739df2c5dacb4c659f2488d90506000826001600160a01b031663c9c6539686846001600160a01b031663ad5c46486040518163ffffffff1660e01b8152600401602060405180830381865afa1580156200150c573d6000803e3d6000fd5b505050506040513d601f19601f8201168201806040525081019062001532919062001ea2565b6040516001600160e01b031960e085901b1681526001600160a01b039283166004820152911660248201526044016020604051808303816000875af115801562001580573d6000803e3d6000fd5b505050506040513d601f19601f82011682018060405250810190620015a6919062001ea2565b95945050505050565b60405163095ea7b360e01b8152737a250d5630b4cf539739df2c5dacb4c659f2488d60048201526024810183905260009084906001600160a01b0382169063095ea7b3906044016020604051808303816000875af115801562001616573d6000803e3d6000fd5b505050506040513d601f19601f820116820180604052508101906200163c919062001ec2565b5060405163f305d71960e01b81526001600160a01b03861660048201526024810185905260448101859052606481018490523060848201524260a4820152737a250d5630b4cf539739df2c5dacb4c659f2488d90600090829063f305d71990879060c40160606040518083038185885af1158015620016bf573d6000803e3d6000fd5b50505050506040513d601f19601f82011682018060405250810190620016e6919062001ee6565b9998505050505050505050565b60405163a9059cbb60e01b8152600060048201819052602482018390529083906001600160a01b0382169063a9059cbb906044016020604051808303816000875af115801562001747573d6000803e3d6000fd5b505050506040513d601f19601f820116820180604052508101906200176d919062001ec2565b506001949350505050565b6040518060e00160405280606081526020016060815260200160608152602001606081526020016000815260200160006001600160a01b0316815260200160006001600160a01b031681525090565b610d538062001f1683390190565b6001600160a01b03811681146200061a57600080fd5b600060208284031215620017fe57600080fd5b81356200180b81620017d5565b9392505050565b6000815180845260005b818110156200183a576020818501810151868301820152016200181c565b506000602082860101526020601f19601f83011685010191505092915050565b60e0815260006200186f60e083018a62001812565b828103602084015262001883818a62001812565b9050828103604084015262001899818962001812565b90508281036060840152620018af818862001812565b608084019690965250506001600160a01b0392831660a0820152911660c090910152949350505050565b600060208284031215620018ec57600080fd5b5035919050565b6000815160e084526200190a60e085018262001812565b90506020830151848203602086015262001925828262001812565b9150506040830151848203604086015262001941828262001812565b915050606083015184820360608601526200195d828262001812565b6080858101519087015260a0808601516001600160a01b039081169188019190915260c095860151169490950193909352509192915050565b6020815260006200180b6020830184620018f3565b634e487b7160e01b600052604160045260246000fd5b600082601f830112620019d357600080fd5b813567ffffffffffffffff80821115620019f157620019f1620019ab565b604051601f8301601f19908116603f0116810190828211818310171562001a1c5762001a1c620019ab565b8160405283815286602085880101111562001a3657600080fd5b836020870160208301376000602085830101528094505050505092915050565b600080600080600060a0868803121562001a6f57600080fd5b853567ffffffffffffffff8082111562001a8857600080fd5b62001a9689838a01620019c1565b9650602088013591508082111562001aad57600080fd5b62001abb89838a01620019c1565b9550604088013591508082111562001ad257600080fd5b62001ae089838a01620019c1565b9450606088013591508082111562001af757600080fd5b5062001b0688828901620019c1565b95989497509295608001359392505050565b600060208083016020845280855180835260408601915060408160051b87010192506020870160005b8281101562001b7357603f1988860301845262001b60858351620018f3565b9450928501929085019060010162001b41565b5092979650505050505050565b6000806040838503121562001b9457600080fd5b50508035926020909101359150565b6000806040838503121562001bb757600080fd5b823562001bc481620017d5565b946020939093013593505050565b600181811c9082168062001be757607f821691505b60208210810362000f6b57634e487b7160e01b600052602260045260246000fd5b634e487b7160e01b600052601160045260246000fd5b808202811582820484141762001044576200104462001c08565b60008262001c5657634e487b7160e01b600052601260045260246000fd5b500490565b8082018082111562001044576200104462001c08565b60a08152600062001c8660a083018862001812565b828103602084015262001c9a818862001812565b604084019690965250506001600160a01b0392909216606083015260809091015292915050565b8181038181111562001044576200104462001c08565b601f82111562001d27576000816000526020600020601f850160051c8101602086101562001d025750805b601f850160051c820191505b8181101562001d235782815560010162001d0e565b5050505b505050565b815167ffffffffffffffff81111562001d495762001d49620019ab565b62001d618162001d5a845462001bd2565b8462001cd7565b602080601f83116001811462001d99576000841562001d805750858301515b600019600386901b1c1916600185901b17855562001d23565b600085815260208120601f198616915b8281101562001dca5788860151825594840194600190910190840162001da9565b508582101562001de95787850151600019600388901b60f8161c191681555b5050505050600190811b01905550565b60a08152600062001e0e60a083018862001812565b828103602084015262001e22818862001812565b9050828103604084015262001e38818762001812565b6001600160a01b039590951660608401525050608001529392505050565b634e487b7160e01b600052603260045260246000fd5b60006020828403121562001e7f57600080fd5b5051919050565b60006001820162001e9b5762001e9b62001c08565b5060010190565b60006020828403121562001eb557600080fd5b81516200180b81620017d5565b60006020828403121562001ed557600080fd5b815180151581146200180b57600080fd5b60008060006060848603121562001efc57600080fd5b835192506020840151915060408401519050925092509256fe60806040523480156200001157600080fd5b5060405162000d5338038062000d538339810160408190526200003491620002cf565b8484600362000044838262000401565b50600462000053828262000401565b5050506200006833846200009260201b60201c565b62000074828262000092565b5050600580546001600160a01b0319163317905550620004f5915050565b6001600160a01b038216620000c25760405163ec442f0560e01b8152600060048201526024015b60405180910390fd5b620000d060008383620000d4565b5050565b6001600160a01b03831662000103578060026000828254620000f79190620004cd565b90915550620001779050565b6001600160a01b03831660009081526020819052604090205481811015620001585760405163391434e360e21b81526001600160a01b03851660048201526024810182905260448101839052606401620000b9565b6001600160a01b03841660009081526020819052604090209082900390555b6001600160a01b0382166200019557600280548290039055620001b4565b6001600160a01b03821660009081526020819052604090208054820190555b816001600160a01b0316836001600160a01b03167fddf252ad1be2c89b69c2b068fc378daa952ba7f163c4a11628f55a4df523b3ef83604051620001fa91815260200190565b60405180910390a3505050565b634e487b7160e01b600052604160045260246000fd5b600082601f8301126200022f57600080fd5b81516001600160401b03808211156200024c576200024c62000207565b604051601f8301601f19908116603f0116810190828211818310171562000277576200027762000207565b81604052838152602092508660208588010111156200029557600080fd5b600091505b83821015620002b957858201830151818301840152908201906200029a565b6000602085830101528094505050505092915050565b600080600080600060a08688031215620002e857600080fd5b85516001600160401b03808211156200030057600080fd5b6200030e89838a016200021d565b965060208801519150808211156200032557600080fd5b5062000334888289016200021d565b60408801516060890151919650945090506001600160a01b03811681146200035b57600080fd5b80925050608086015190509295509295909350565b600181811c908216806200038557607f821691505b602082108103620003a657634e487b7160e01b600052602260045260246000fd5b50919050565b601f821115620003fc576000816000526020600020601f850160051c81016020861015620003d75750805b601f850160051c820191505b81811015620003f857828155600101620003e3565b5050505b505050565b81516001600160401b038111156200041d576200041d62000207565b62000435816200042e845462000370565b84620003ac565b602080601f8311600181146200046d5760008415620004545750858301515b600019600386901b1c1916600185901b178555620003f8565b600085815260208120601f198616915b828110156200049e578886015182559484019460019091019084016200047d565b5085821015620004bd5787850151600019600388901b60f8161c191681555b5050505050600190811b01905550565b80820180821115620004ef57634e487b7160e01b600052601160045260246000fd5b92915050565b61084e80620005056000396000f3fe608060405234801561001057600080fd5b50600436106100a95760003560e01c806370a082311161007157806370a08231146101235780638da5cb5b1461014c57806394bf804d1461017757806395d89b411461018a578063a9059cbb14610192578063dd62ed3e146101a557600080fd5b806306fdde03146100ae578063095ea7b3146100cc57806318160ddd146100ef57806323b872dd14610101578063313ce56714610114575b600080fd5b6100b66101de565b6040516100c39190610674565b60405180910390f35b6100df6100da3660046106df565b610270565b60405190151581526020016100c3565b6002545b6040519081526020016100c3565b6100df61010f366004610709565b61028a565b604051601281526020016100c3565b6100f3610131366004610745565b6001600160a01b031660009081526020819052604090205490565b60055461015f906001600160a01b031681565b6040516001600160a01b0390911681526020016100c3565b6100f3610185366004610767565b6102ae565b6100b661032f565b6100df6101a03660046106df565b61033e565b6100f36101b3366004610793565b6001600160a01b03918216600090815260016020908152604080832093909416825291909152205490565b6060600380546101ed906107bd565b80601f0160208091040260200160405190810160405280929190818152602001828054610219906107bd565b80156102665780601f1061023b57610100808354040283529160200191610266565b820191906000526020600020905b81548152906001019060200180831161024957829003601f168201915b5050505050905090565b60003361027e81858561034c565b60019150505b92915050565b60003361029885828561035e565b6102a38585856103dc565b506001949350505050565b6005546000906001600160a01b0316331461031c5760405162461bcd60e51b8152602060048201526024808201527f4d696e742063616e206f6e6c792062652063616c6c656420627920746865206f6044820152633bb732b960e11b60648201526084015b60405180910390fd5b610326828461043b565b50600192915050565b6060600480546101ed906107bd565b60003361027e8185856103dc565b6103598383836001610475565b505050565b6001600160a01b0383811660009081526001602090815260408083209386168352929052205460001981146103d657818110156103c757604051637dc7a0d960e11b81526001600160a01b03841660048201526024810182905260448101839052606401610313565b6103d684848484036000610475565b50505050565b6001600160a01b03831661040657604051634b637e8f60e11b815260006004820152602401610313565b6001600160a01b0382166104305760405163ec442f0560e01b815260006004820152602401610313565b61035983838361054a565b6001600160a01b0382166104655760405163ec442f0560e01b815260006004820152602401610313565b6104716000838361054a565b5050565b6001600160a01b03841661049f5760405163e602df0560e01b815260006004820152602401610313565b6001600160a01b0383166104c957604051634a1406b160e11b815260006004820152602401610313565b6001600160a01b03808516600090815260016020908152604080832093871683529290522082905580156103d657826001600160a01b0316846001600160a01b03167f8c5be1e5ebec7d5bd14f71427d1e84f3dd0314c0f7b2291e5b200ac8c7c3b9258460405161053c91815260200190565b60405180910390a350505050565b6001600160a01b03831661057557806002600082825461056a91906107f7565b909155506105e79050565b6001600160a01b038316600090815260208190526040902054818110156105c85760405163391434e360e21b81526001600160a01b03851660048201526024810182905260448101839052606401610313565b6001600160a01b03841660009081526020819052604090209082900390555b6001600160a01b03821661060357600280548290039055610622565b6001600160a01b03821660009081526020819052604090208054820190555b816001600160a01b0316836001600160a01b03167fddf252ad1be2c89b69c2b068fc378daa952ba7f163c4a11628f55a4df523b3ef8360405161066791815260200190565b60405180910390a3505050565b60006020808352835180602085015260005b818110156106a257858101830151858201604001528201610686565b506000604082860101526040601f19601f8301168501019250505092915050565b80356001600160a01b03811681146106da57600080fd5b919050565b600080604083850312156106f257600080fd5b6106fb836106c3565b946020939093013593505050565b60008060006060848603121561071e57600080fd5b610727846106c3565b9250610735602085016106c3565b9150604084013590509250925092565b60006020828403121561075757600080fd5b610760826106c3565b9392505050565b6000806040838503121561077a57600080fd5b8235915061078a602084016106c3565b90509250929050565b600080604083850312156107a657600080fd5b6107af836106c3565b915061078a602084016106c3565b600181811c908216806107d157607f821691505b6020821081036107f157634e487b7160e01b600052602260045260246000fd5b50919050565b8082018082111561028457634e487b7160e01b600052601160045260246000fdfea264697066735822122086f1f15e52c78b848ec0700b5579419eb3d594dfa98ff34c548f143b20ea674e64736f6c63430008180033a264697066735822122019499b6aa10b41e851afa3d5d72d07a2c7a0655c84af5d55b326ffbd65906b6c64736f6c63430008180033","linkReferences":{}},"methodIdentifiers":{"INITIAL_PRICE()":"7c5e2795","K()":"a932492f","Owner()":"b4a99a4e","addressToMemeTokenMapping(address)":"130da960","buyMemeToken(address,uint256)":"e823bfd5","calculateCost(uint256,uint256)":"ce394696","createMemeToken(string,string,string,string,uint256)":"91d75448","getAllMemeTokens()":"bcfeed9a","getMemeToken(address)":"4d662524","memeTokenAddresses(uint256)":"13cb5ad6","withdraw()":"3ccfd60b"},"id":28}