{"abi":[{"type":"function","name":"INITIAL_PRICE","inputs":[],"outputs":[{"name":"","type":"uint256","internalType":"uint256"}],"stateMutability":"view"},{"type":"function","name":"K","inputs":[],"outputs":[{"name":"","type":"uint256","internalType":"uint256"}],"stateMutability":"view"},{"type":"function","name":"addressToMemeTokenMapping","inputs":[{"name":"","type":"address","internalType":"address"}],"outputs":[{"name":"name","type":"string","internalType":"string"},{"name":"symbol","type":"string","internalType":"string"},{"name":"description","type":"string","internalType":"string"},{"name":"tokenImageUrl","type":"string","internalType":"string"},{"name":"fundingRaised","type":"uint256","internalType":"uint256"},{"name":"tokenAddress","type":"address","internalType":"address"},{"name":"creatorAddress","type":"address","internalType":"address"}],"stateMutability":"view"},{"type":"function","name":"buyMemeToken","inputs":[{"name":"memeTokenAddress","type":"address","internalType":"address"},{"name":"tokenQty","type":"uint256","internalType":"uint256"}],"outputs":[{"name":"","type":"uint256","internalType":"uint256"}],"stateMutability":"payable"},{"type":"function","name":"calculateCost","inputs":[{"name":"currentSupply","type":"uint256","internalType":"uint256"},{"name":"tokensToBuy","type":"uint256","internalType":"uint256"}],"outputs":[{"name":"","type":"uint256","internalType":"uint256"}],"stateMutability":"pure"},{"type":"function","name":"createMemeToken","inputs":[{"name":"name","type":"string","internalType":"string"},{"name":"symbol","type":"string","internalType":"string"},{"name":"imageUrl","type":"string","internalType":"string"},{"name":"description","type":"string","internalType":"string"},{"name":"airdropReceiver","type":"address[]","internalType":"address[]"},{"name":"airdropQty","type":"uint256","internalType":"uint256"}],"outputs":[{"name":"","type":"address","internalType":"address"}],"stateMutability":"payable"},{"type":"function","name":"getAllMemeTokens","inputs":[],"outputs":[{"name":"","type":"tuple[]","internalType":"struct RootFun.memeToken[]","components":[{"name":"name","type":"string","internalType":"string"},{"name":"symbol","type":"string","internalType":"string"},{"name":"description","type":"string","internalType":"string"},{"name":"tokenImageUrl","type":"string","internalType":"string"},{"name":"fundingRaised","type":"uint256","internalType":"uint256"},{"name":"tokenAddress","type":"address","internalType":"address"},{"name":"creatorAddress","type":"address","internalType":"address"}]}],"stateMutability":"view"},{"type":"function","name":"getMemeToken","inputs":[{"name":"memeTokenAddress","type":"address","internalType":"address"}],"outputs":[{"name":"","type":"tuple","internalType":"struct RootFun.memeToken","components":[{"name":"name","type":"string","internalType":"string"},{"name":"symbol","type":"string","internalType":"string"},{"name":"description","type":"string","internalType":"string"},{"name":"tokenImageUrl","type":"string","internalType":"string"},{"name":"fundingRaised","type":"uint256","internalType":"uint256"},{"name":"tokenAddress","type":"address","internalType":"address"},{"name":"creatorAddress","type":"address","internalType":"address"}]}],"stateMutability":"view"},{"type":"function","name":"memeTokenAddresses","inputs":[{"name":"","type":"uint256","internalType":"uint256"}],"outputs":[{"name":"","type":"address","internalType":"address"}],"stateMutability":"view"},{"type":"event","name":"MemeTokenCreated","inputs":[{"name":"memeTokenAddress","type":"address","indexed":true,"internalType":"address"},{"name":"name","type":"string","indexed":false,"internalType":"string"},{"name":"symbol","type":"string","indexed":false,"internalType":"string"},{"name":"description","type":"string","indexed":false,"internalType":"string"},{"name":"creatorAddress","type":"address","indexed":false,"internalType":"address"}],"anonymous":false}],"bytecode":{"object":"0x608060405234801561001057600080fd5b50612b8b806100206000396000f3fe608060405260043610620000915760003560e01c80637c5e279511620000605780637c5e27951462000162578063a932492f146200018d578063bcfeed9a14620001aa578063ce39469614620001d1578063e823bfd514620001f657600080fd5b8063130da960146200009657806313cb5ad614620000d957806320cbe9b914620001175780634d662524146200012e575b600080fd5b348015620000a357600080fd5b50620000bb620000b536600462001540565b6200020d565b604051620000d09796959493929190620015af565b60405180910390f35b348015620000e657600080fd5b50620000fe620000f83660046200162e565b62000494565b6040516001600160a01b039091168152602001620000d0565b620000fe620001283660046200179d565b620004bf565b3480156200013b57600080fd5b50620001536200014d36600462001540565b6200067d565b604051620000d091906200192a565b3480156200016f57600080fd5b506200017e651b48eb57e00081565b604051908152602001620000d0565b3480156200019a57600080fd5b506200017e661c6bf52634000081565b348015620001b757600080fd5b50620001c262000944565b604051620000d091906200193f565b348015620001de57600080fd5b506200017e620001f0366004620019a7565b62000cc3565b6200017e62000207366004620019ca565b62000d9c565b6001602052600090815260409020805481906200022a90620019f9565b80601f01602080910402602001604051908101604052809291908181526020018280546200025890620019f9565b8015620002a95780601f106200027d57610100808354040283529160200191620002a9565b820191906000526020600020905b8154815290600101906020018083116200028b57829003601f168201915b505050505090806001018054620002c090620019f9565b80601f0160208091040260200160405190810160405280929190818152602001828054620002ee90620019f9565b80156200033f5780601f1062000313576101008083540402835291602001916200033f565b820191906000526020600020905b8154815290600101906020018083116200032157829003601f168201915b5050505050908060020180546200035690620019f9565b80601f01602080910402602001604051908101604052809291908181526020018280546200038490620019f9565b8015620003d55780601f10620003a957610100808354040283529160200191620003d5565b820191906000526020600020905b815481529060010190602001808311620003b757829003601f168201915b505050505090806003018054620003ec90620019f9565b80601f01602080910402602001604051908101604052809291908181526020018280546200041a90620019f9565b80156200046b5780601f106200043f576101008083540402835291602001916200046b565b820191906000526020600020905b8154815290600101906020018083116200044d57829003601f168201915b5050505060048301546005840154600690940154929390926001600160a01b0391821692501687565b60008181548110620004a557600080fd5b6000918252602090912001546001600160a01b0316905081565b6000620004d0565b60405180910390fd5b600087876064620004ed670de0b6b3a7640000620f424062001a45565b620004fa90601462001a45565b62000506919062001a5f565b86866040516200051690620014ca565b6200052695949392919062001a82565b604051809103906000f08015801562000543573d6000803e3d6000fd5b506040805160e0810182528a815260208082018b9052818301899052606082018a90526000608083018190526001600160a01b03851660a084018190523360c08501528154600181810184557f290decd9548b62a8d60345a988386fc84ba6bc95484008f6362f93160ef3e56390910180546001600160a01b0319168317905590825290915291909120815192935083928291908190620005e5908262001b63565b5060208201516001820190620005fc908262001b63565b506040820151600282019062000613908262001b63565b50606082015160038201906200062a908262001b63565b506080820151600482015560a08201516005820180546001600160a01b03199081166001600160a01b039384161790915560c0909301516006909201805490931691161790555098975050505050505050565b62000687620014d8565b6001600160a01b03821660009081526001602052604090819020815160e08101909252805482908290620006bb90620019f9565b80601f0160208091040260200160405190810160405280929190818152602001828054620006e990620019f9565b80156200073a5780601f106200070e576101008083540402835291602001916200073a565b820191906000526020600020905b8154815290600101906020018083116200071c57829003601f168201915b505050505081526020016001820180546200075590620019f9565b80601f01602080910402602001604051908101604052809291908181526020018280546200078390620019f9565b8015620007d45780601f10620007a857610100808354040283529160200191620007d4565b820191906000526020600020905b815481529060010190602001808311620007b657829003601f168201915b50505050508152602001600282018054620007ef90620019f9565b80601f01602080910402602001604051908101604052809291908181526020018280546200081d90620019f9565b80156200086e5780601f1062000842576101008083540402835291602001916200086e565b820191906000526020600020905b8154815290600101906020018083116200085057829003601f168201915b505050505081526020016003820180546200088990620019f9565b80601f0160208091040260200160405190810160405280929190818152602001828054620008b790620019f9565b8015620009085780601f10620008dc5761010080835404028352916020019162000908565b820191906000526020600020905b815481529060010190602001808311620008ea57829003601f168201915b50505091835250506004820154602082015260058201546001600160a01b03908116604083015260069092015490911660609091015292915050565b600080546060919067ffffffffffffffff81111562000967576200096762001648565b604051908082528060200260200182016040528015620009a457816020015b62000990620014d8565b815260200190600190039081620009865790505b50905060005b60005481101562000cbd5760016000808381548110620009ce57620009ce62001c30565b60009182526020808320909101546001600160a01b031683528201929092526040908101909120815160e0810190925280548290829062000a0f90620019f9565b80601f016020809104026020016040519081016040528092919081815260200182805462000a3d90620019f9565b801562000a8e5780601f1062000a625761010080835404028352916020019162000a8e565b820191906000526020600020905b81548152906001019060200180831162000a7057829003601f168201915b5050505050815260200160018201805462000aa990620019f9565b80601f016020809104026020016040519081016040528092919081815260200182805462000ad790620019f9565b801562000b285780601f1062000afc5761010080835404028352916020019162000b28565b820191906000526020600020905b81548152906001019060200180831162000b0a57829003601f168201915b5050505050815260200160028201805462000b4390620019f9565b80601f016020809104026020016040519081016040528092919081815260200182805462000b7190620019f9565b801562000bc25780601f1062000b965761010080835404028352916020019162000bc2565b820191906000526020600020905b81548152906001019060200180831162000ba457829003601f168201915b5050505050815260200160038201805462000bdd90620019f9565b80601f016020809104026020016040519081016040528092919081815260200182805462000c0b90620019f9565b801562000c5c5780601f1062000c305761010080835404028352916020019162000c5c565b820191906000526020600020905b81548152906001019060200180831162000c3e57829003601f168201915b50505091835250506004820154602082015260058201546001600160a01b039081166040830152600690920154909116606090910152825183908390811062000ca95762000ca962001c30565b6020908102919091010152600101620009aa565b50919050565b600080670de0b6b3a764000062000cdb848662001c46565b62000cee90661c6bf52634000062001a45565b62000cfa919062001a5f565b90506000670de0b6b3a764000062000d1a86661c6bf52634000062001a45565b62000d26919062001a5f565b9050600062000d35836200115d565b9050600062000d44836200115d565b90506000661c6bf52634000062000d5c838562001c5c565b62000d76651b48eb57e000670de0b6b3a764000062001a45565b62000d82919062001a45565b62000d8e919062001a5f565b955050505050505b92915050565b6001600160a01b0382811660009081526001602052604081206005015490911662000e005760405162461bcd60e51b8152602060048201526013602482015272151bdad95b881a5cc81b9bdd081b1a5cdd1959606a1b6044820152606401620004c7565b6001600160a01b03831660009081526001602052604090206004810154849066b1a2bc2ec50000101562000e775760405162461bcd60e51b815260206004820152601f60248201527f46756e64696e672068617320616c7265616479206265656e20726169736564006044820152606401620004c7565b6000816001600160a01b03166318160ddd6040518163ffffffff1660e01b8152600401602060405180830381865afa15801562000eb8573d6000803e3d6000fd5b505050506040513d601f19601f8201168201806040525081019062000ede919062001c72565b905060008162000efa670de0b6b3a7640000620f424062001a45565b62000f06919062001c5c565b9050600062000f1e670de0b6b3a76400008362001a5f565b9050600062000f36670de0b6b3a76400008962001a45565b90508188111562000f8a5760405162461bcd60e51b815260206004820152601b60248201527f4e6f7420656e6f75676820617661696c61626c6520737570706c7900000000006044820152606401620004c7565b6000670de0b6b3a7640000606462000fa682620f424062001a45565b62000fb390601462001a45565b62000fbf919062001a5f565b62000fcb908762001c5c565b62000fd7919062001a5f565b9050600062000fe7828b62000cc3565b9050803410156200103b5760405162461bcd60e51b815260206004820152601b60248201527f496e636f72726563742076616c7565206f66204554482073656e7400000000006044820152606401620004c7565b3488600401600082825462001051919062001c46565b9091555050600488015466b1a2bc2ec5000011620010d7576000620010768c620011da565b90506000606462001093670de0b6b3a7640000620f424062001a45565b620010a090601462001a45565b620010ac919062001a5f565b60048b01549091506000620010c38f848462001301565b9050620010d1848262001445565b50505050505b6040516394bf804d60e01b8152600481018490523360248201526001600160a01b038816906394bf804d906044016020604051808303816000875af115801562001125573d6000803e3d6000fd5b505050506040513d601f19601f820116820180604052508101906200114b919062001c72565b5060019b9a5050505050505050505050565b6000670de0b6b3a7640000808360015b60148111620011d0576200118a81670de0b6b3a764000062001a45565b62001196838562001a45565b620011a2919062001a5f565b9250620011b0838562001c46565b935060018310620011d05780620011c78162001c8c565b9150506200116d565b5091949350505050565b600080735c69bee701ef814a2b6a3edd4b1652cb9cc5aa6f90506000737a250d5630b4cf539739df2c5dacb4c659f2488d90506000826001600160a01b031663c9c6539686846001600160a01b031663ad5c46486040518163ffffffff1660e01b8152600401602060405180830381865afa1580156200125e573d6000803e3d6000fd5b505050506040513d601f19601f8201168201806040525081019062001284919062001ca8565b6040516001600160e01b031960e085901b1681526001600160a01b039283166004820152911660248201526044016020604051808303816000875af1158015620012d2573d6000803e3d6000fd5b505050506040513d601f19601f82011682018060405250810190620012f8919062001ca8565b95945050505050565b60405163095ea7b360e01b8152737a250d5630b4cf539739df2c5dacb4c659f2488d60048201526024810183905260009084906001600160a01b0382169063095ea7b3906044016020604051808303816000875af115801562001368573d6000803e3d6000fd5b505050506040513d601f19601f820116820180604052508101906200138e919062001cc8565b5060405163f305d71960e01b81526001600160a01b03861660048201526024810185905260448101859052606481018490523060848201524260a4820152737a250d5630b4cf539739df2c5dacb4c659f2488d90600090829063f305d71990879060c40160606040518083038185885af115801562001411573d6000803e3d6000fd5b50505050506040513d601f19601f8201168201806040525081019062001438919062001cec565b9998505050505050505050565b60405163a9059cbb60e01b8152600060048201819052602482018390529083906001600160a01b0382169063a9059cbb906044016020604051808303816000875af115801562001499573d6000803e3d6000fd5b505050506040513d601f19601f82011682018060405250810190620014bf919062001cc8565b506001949350505050565b610e3a8062001d1c83390190565b6040518060e00160405280606081526020016060815260200160608152602001606081526020016000815260200160006001600160a01b0316815260200160006001600160a01b031681525090565b6001600160a01b03811681146200153d57600080fd5b50565b6000602082840312156200155357600080fd5b8135620015608162001527565b9392505050565b6000815180845260005b818110156200158f5760208185018101518683018201520162001571565b506000602082860101526020601f19601f83011685010191505092915050565b60e081526000620015c460e083018a62001567565b8281036020840152620015d8818a62001567565b90508281036040840152620015ee818962001567565b9050828103606084015262001604818862001567565b608084019690965250506001600160a01b0392831660a0820152911660c090910152949350505050565b6000602082840312156200164157600080fd5b5035919050565b634e487b7160e01b600052604160045260246000fd5b604051601f8201601f1916810167ffffffffffffffff811182821017156200168a576200168a62001648565b604052919050565b600082601f830112620016a457600080fd5b813567ffffffffffffffff811115620016c157620016c162001648565b620016d6601f8201601f19166020016200165e565b818152846020838601011115620016ec57600080fd5b816020850160208301376000918101602001919091529392505050565b600082601f8301126200171b57600080fd5b8135602067ffffffffffffffff8211156200173a576200173a62001648565b8160051b6200174b8282016200165e565b92835284810182019282810190878511156200176657600080fd5b83870192505b8483101562001792578235620017828162001527565b825291830191908301906200176c565b979650505050505050565b60008060008060008060c08789031215620017b757600080fd5b863567ffffffffffffffff80821115620017d057600080fd5b620017de8a838b0162001692565b97506020890135915080821115620017f557600080fd5b620018038a838b0162001692565b965060408901359150808211156200181a57600080fd5b620018288a838b0162001692565b955060608901359150808211156200183f57600080fd5b6200184d8a838b0162001692565b945060808901359150808211156200186457600080fd5b506200187389828a0162001709565b92505060a087013590509295509295509295565b6000815160e084526200189e60e085018262001567565b905060208301518482036020860152620018b9828262001567565b91505060408301518482036040860152620018d5828262001567565b91505060608301518482036060860152620018f1828262001567565b6080858101519087015260a0808601516001600160a01b039081169188019190915260c095860151169490950193909352509192915050565b60208152600062001560602083018462001887565b600060208083016020845280855180835260408601915060408160051b87010192506020870160005b828110156200199a57603f198886030184526200198785835162001887565b9450928501929085019060010162001968565b5092979650505050505050565b60008060408385031215620019bb57600080fd5b50508035926020909101359150565b60008060408385031215620019de57600080fd5b8235620019eb8162001527565b946020939093013593505050565b600181811c9082168062001a0e57607f821691505b60208210810362000cbd57634e487b7160e01b600052602260045260246000fd5b634e487b7160e01b600052601160045260246000fd5b808202811582820484141762000d965762000d9662001a2f565b60008262001a7d57634e487b7160e01b600052601260045260246000fd5b500490565b60a08152600062001a9760a083018862001567565b6020838203602085015262001aad828962001567565b6040850188905284810360608601528651808252602080890194509091019060005b8181101562001af65784516001600160a01b03168352938301939183019160010162001acf565b50508093505050508260808301529695505050505050565b601f82111562001b5e576000816000526020600020601f850160051c8101602086101562001b395750805b601f850160051c820191505b8181101562001b5a5782815560010162001b45565b5050505b505050565b815167ffffffffffffffff81111562001b805762001b8062001648565b62001b988162001b918454620019f9565b8462001b0e565b602080601f83116001811462001bd0576000841562001bb75750858301515b600019600386901b1c1916600185901b17855562001b5a565b600085815260208120601f198616915b8281101562001c015788860151825594840194600190910190840162001be0565b508582101562001c205787850151600019600388901b60f8161c191681555b5050505050600190811b01905550565b634e487b7160e01b600052603260045260246000fd5b8082018082111562000d965762000d9662001a2f565b8181038181111562000d965762000d9662001a2f565b60006020828403121562001c8557600080fd5b5051919050565b60006001820162001ca15762001ca162001a2f565b5060010190565b60006020828403121562001cbb57600080fd5b8151620015608162001527565b60006020828403121562001cdb57600080fd5b815180151581146200156057600080fd5b60008060006060848603121562001d0257600080fd5b835192506020840151915060408401519050925092509256fe60806040523480156200001157600080fd5b5060405162000e3a38038062000e3a833981016040819052620000349162000316565b84846003620000448382620004d2565b506004620000538282620004d2565b505050620000683384620000cb60201b60201c565b60005b8251811015620000ac57620000a38382815181106200008e576200008e6200059e565b602002602001015183620000cb60201b60201c565b6001016200006b565b5050600580546001600160a01b0319163317905550620005dc92505050565b6001600160a01b038216620000fb5760405163ec442f0560e01b8152600060048201526024015b60405180910390fd5b62000109600083836200010d565b5050565b6001600160a01b0383166200013c578060026000828254620001309190620005b4565b90915550620001b09050565b6001600160a01b03831660009081526020819052604090205481811015620001915760405163391434e360e21b81526001600160a01b03851660048201526024810182905260448101839052606401620000f2565b6001600160a01b03841660009081526020819052604090209082900390555b6001600160a01b038216620001ce57600280548290039055620001ed565b6001600160a01b03821660009081526020819052604090208054820190555b816001600160a01b0316836001600160a01b03167fddf252ad1be2c89b69c2b068fc378daa952ba7f163c4a11628f55a4df523b3ef836040516200023391815260200190565b60405180910390a3505050565b634e487b7160e01b600052604160045260246000fd5b604051601f8201601f191681016001600160401b038111828210171562000281576200028162000240565b604052919050565b600082601f8301126200029b57600080fd5b81516001600160401b03811115620002b757620002b762000240565b6020620002cd601f8301601f1916820162000256565b8281528582848701011115620002e257600080fd5b60005b8381101562000302578581018301518282018401528201620002e5565b506000928101909101919091529392505050565b600080600080600060a086880312156200032f57600080fd5b85516001600160401b03808211156200034757600080fd5b6200035589838a0162000289565b96506020915081880151818111156200036d57600080fd5b6200037b8a828b0162000289565b965050604088015194506060880151818111156200039857600080fd5b8801601f81018a13620003aa57600080fd5b805182811115620003bf57620003bf62000240565b8060051b9250620003d284840162000256565b818152928201840192848101908c851115620003ed57600080fd5b928501925b848410156200042757835192506001600160a01b0383168314620004165760008081fd5b8282529285019290850190620003f2565b809750505050505050608086015190509295509295909350565b600181811c908216806200045657607f821691505b6020821081036200047757634e487b7160e01b600052602260045260246000fd5b50919050565b601f821115620004cd576000816000526020600020601f850160051c81016020861015620004a85750805b601f850160051c820191505b81811015620004c957828155600101620004b4565b5050505b505050565b81516001600160401b03811115620004ee57620004ee62000240565b6200050681620004ff845462000441565b846200047d565b602080601f8311600181146200053e5760008415620005255750858301515b600019600386901b1c1916600185901b178555620004c9565b600085815260208120601f198616915b828110156200056f578886015182559484019460019091019084016200054e565b50858210156200058e5787850151600019600388901b60f8161c191681555b5050505050600190811b01905550565b634e487b7160e01b600052603260045260246000fd5b80820180821115620005d657634e487b7160e01b600052601160045260246000fd5b92915050565b61084e80620005ec6000396000f3fe608060405234801561001057600080fd5b50600436106100a95760003560e01c806370a082311161007157806370a08231146101235780638da5cb5b1461014c57806394bf804d1461017757806395d89b411461018a578063a9059cbb14610192578063dd62ed3e146101a557600080fd5b806306fdde03146100ae578063095ea7b3146100cc57806318160ddd146100ef57806323b872dd14610101578063313ce56714610114575b600080fd5b6100b66101de565b6040516100c39190610674565b60405180910390f35b6100df6100da3660046106df565b610270565b60405190151581526020016100c3565b6002545b6040519081526020016100c3565b6100df61010f366004610709565b61028a565b604051601281526020016100c3565b6100f3610131366004610745565b6001600160a01b031660009081526020819052604090205490565b60055461015f906001600160a01b031681565b6040516001600160a01b0390911681526020016100c3565b6100f3610185366004610767565b6102ae565b6100b661032f565b6100df6101a03660046106df565b61033e565b6100f36101b3366004610793565b6001600160a01b03918216600090815260016020908152604080832093909416825291909152205490565b6060600380546101ed906107bd565b80601f0160208091040260200160405190810160405280929190818152602001828054610219906107bd565b80156102665780601f1061023b57610100808354040283529160200191610266565b820191906000526020600020905b81548152906001019060200180831161024957829003601f168201915b5050505050905090565b60003361027e81858561034c565b60019150505b92915050565b60003361029885828561035e565b6102a38585856103dc565b506001949350505050565b6005546000906001600160a01b0316331461031c5760405162461bcd60e51b8152602060048201526024808201527f4d696e742063616e206f6e6c792062652063616c6c656420627920746865206f6044820152633bb732b960e11b60648201526084015b60405180910390fd5b610326828461043b565b50600192915050565b6060600480546101ed906107bd565b60003361027e8185856103dc565b6103598383836001610475565b505050565b6001600160a01b0383811660009081526001602090815260408083209386168352929052205460001981146103d657818110156103c757604051637dc7a0d960e11b81526001600160a01b03841660048201526024810182905260448101839052606401610313565b6103d684848484036000610475565b50505050565b6001600160a01b03831661040657604051634b637e8f60e11b815260006004820152602401610313565b6001600160a01b0382166104305760405163ec442f0560e01b815260006004820152602401610313565b61035983838361054a565b6001600160a01b0382166104655760405163ec442f0560e01b815260006004820152602401610313565b6104716000838361054a565b5050565b6001600160a01b03841661049f5760405163e602df0560e01b815260006004820152602401610313565b6001600160a01b0383166104c957604051634a1406b160e11b815260006004820152602401610313565b6001600160a01b03808516600090815260016020908152604080832093871683529290522082905580156103d657826001600160a01b0316846001600160a01b03167f8c5be1e5ebec7d5bd14f71427d1e84f3dd0314c0f7b2291e5b200ac8c7c3b9258460405161053c91815260200190565b60405180910390a350505050565b6001600160a01b03831661057557806002600082825461056a91906107f7565b909155506105e79050565b6001600160a01b038316600090815260208190526040902054818110156105c85760405163391434e360e21b81526001600160a01b03851660048201526024810182905260448101839052606401610313565b6001600160a01b03841660009081526020819052604090209082900390555b6001600160a01b03821661060357600280548290039055610622565b6001600160a01b03821660009081526020819052604090208054820190555b816001600160a01b0316836001600160a01b03167fddf252ad1be2c89b69c2b068fc378daa952ba7f163c4a11628f55a4df523b3ef8360405161066791815260200190565b60405180910390a3505050565b60006020808352835180602085015260005b818110156106a257858101830151858201604001528201610686565b506000604082860101526040601f19601f8301168501019250505092915050565b80356001600160a01b03811681146106da57600080fd5b919050565b600080604083850312156106f257600080fd5b6106fb836106c3565b946020939093013593505050565b60008060006060848603121561071e57600080fd5b610727846106c3565b9250610735602085016106c3565b9150604084013590509250925092565b60006020828403121561075757600080fd5b610760826106c3565b9392505050565b6000806040838503121561077a57600080fd5b8235915061078a602084016106c3565b90509250929050565b600080604083850312156107a657600080fd5b6107af836106c3565b915061078a602084016106c3565b600181811c908216806107d157607f821691505b6020821081036107f157634e487b7160e01b600052602260045260246000fd5b50919050565b8082018082111561028457634e487b7160e01b600052601160045260246000fdfea2646970667358221220c4fe0710a82d2f7d6a61632d94c6f2259dbc9c8fe2f76effdad12e79f8f1e0b964736f6c63430008180033a2646970667358221220ff335746d75ca01ef53288e30662aaaf4b302f29828b02b36c705dc3d08e80df64736f6c63430008180033","linkReferences":{}},"methodIdentifiers":{"INITIAL_PRICE()":"7c5e2795","K()":"a932492f","addressToMemeTokenMapping(address)":"130da960","buyMemeToken(address,uint256)":"e823bfd5","calculateCost(uint256,uint256)":"ce394696","createMemeToken(string,string,string,string,address[],uint256)":"20cbe9b9","getAllMemeTokens()":"bcfeed9a","getMemeToken(address)":"4d662524","memeTokenAddresses(uint256)":"13cb5ad6"},"id":28}