{"abi":[{"type":"constructor","inputs":[{"name":"name","type":"string","internalType":"string"},{"name":"symbol","type":"string","internalType":"string"},{"name":"initialMintValue","type":"uint256","internalType":"uint256"}],"stateMutability":"nonpayable"},{"type":"function","name":"allowance","inputs":[{"name":"owner","type":"address","internalType":"address"},{"name":"spender","type":"address","internalType":"address"}],"outputs":[{"name":"","type":"uint256","internalType":"uint256"}],"stateMutability":"view"},{"type":"function","name":"approve","inputs":[{"name":"spender","type":"address","internalType":"address"},{"name":"value","type":"uint256","internalType":"uint256"}],"outputs":[{"name":"","type":"bool","internalType":"bool"}],"stateMutability":"nonpayable"},{"type":"function","name":"balanceOf","inputs":[{"name":"account","type":"address","internalType":"address"}],"outputs":[{"name":"","type":"uint256","internalType":"uint256"}],"stateMutability":"view"},{"type":"function","name":"decimals","inputs":[],"outputs":[{"name":"","type":"uint8","internalType":"uint8"}],"stateMutability":"view"},{"type":"function","name":"mint","inputs":[{"name":"mintQty","type":"uint256","internalType":"uint256"},{"name":"receiver","type":"address","internalType":"address"}],"outputs":[{"name":"","type":"uint256","internalType":"uint256"}],"stateMutability":"nonpayable"},{"type":"function","name":"name","inputs":[],"outputs":[{"name":"","type":"string","internalType":"string"}],"stateMutability":"view"},{"type":"function","name":"owner","inputs":[],"outputs":[{"name":"","type":"address","internalType":"address"}],"stateMutability":"view"},{"type":"function","name":"symbol","inputs":[],"outputs":[{"name":"","type":"string","internalType":"string"}],"stateMutability":"view"},{"type":"function","name":"totalSupply","inputs":[],"outputs":[{"name":"","type":"uint256","internalType":"uint256"}],"stateMutability":"view"},{"type":"function","name":"transfer","inputs":[{"name":"to","type":"address","internalType":"address"},{"name":"value","type":"uint256","internalType":"uint256"}],"outputs":[{"name":"","type":"bool","internalType":"bool"}],"stateMutability":"nonpayable"},{"type":"function","name":"transferFrom","inputs":[{"name":"from","type":"address","internalType":"address"},{"name":"to","type":"address","internalType":"address"},{"name":"value","type":"uint256","internalType":"uint256"}],"outputs":[{"name":"","type":"bool","internalType":"bool"}],"stateMutability":"nonpayable"},{"type":"event","name":"Approval","inputs":[{"name":"owner","type":"address","indexed":true,"internalType":"address"},{"name":"spender","type":"address","indexed":true,"internalType":"address"},{"name":"value","type":"uint256","indexed":false,"internalType":"uint256"}],"anonymous":false},{"type":"event","name":"Transfer","inputs":[{"name":"from","type":"address","indexed":true,"internalType":"address"},{"name":"to","type":"address","indexed":true,"internalType":"address"},{"name":"value","type":"uint256","indexed":false,"internalType":"uint256"}],"anonymous":false},{"type":"error","name":"ERC20InsufficientAllowance","inputs":[{"name":"spender","type":"address","internalType":"address"},{"name":"allowance","type":"uint256","internalType":"uint256"},{"name":"needed","type":"uint256","internalType":"uint256"}]},{"type":"error","name":"ERC20InsufficientBalance","inputs":[{"name":"sender","type":"address","internalType":"address"},{"name":"balance","type":"uint256","internalType":"uint256"},{"name":"needed","type":"uint256","internalType":"uint256"}]},{"type":"error","name":"ERC20InvalidApprover","inputs":[{"name":"approver","type":"address","internalType":"address"}]},{"type":"error","name":"ERC20InvalidReceiver","inputs":[{"name":"receiver","type":"address","internalType":"address"}]},{"type":"error","name":"ERC20InvalidSender","inputs":[{"name":"sender","type":"address","internalType":"address"}]},{"type":"error","name":"ERC20InvalidSpender","inputs":[{"name":"spender","type":"address","internalType":"address"}]}],"bytecode":{"object":"0x60806040523480156200001157600080fd5b5060405162000d1638038062000d168339810160408190526200003491620002c0565b82826003620000448382620003c4565b506004620000538282620003c4565b5050506200006833826200008360201b60201c565b5050600580546001600160a01b0319163317905550620004b8565b6001600160a01b038216620000b35760405163ec442f0560e01b8152600060048201526024015b60405180910390fd5b620000c160008383620000c5565b5050565b6001600160a01b038316620000f4578060026000828254620000e8919062000490565b90915550620001689050565b6001600160a01b03831660009081526020819052604090205481811015620001495760405163391434e360e21b81526001600160a01b03851660048201526024810182905260448101839052606401620000aa565b6001600160a01b03841660009081526020819052604090209082900390555b6001600160a01b0382166200018657600280548290039055620001a5565b6001600160a01b03821660009081526020819052604090208054820190555b816001600160a01b0316836001600160a01b03167fddf252ad1be2c89b69c2b068fc378daa952ba7f163c4a11628f55a4df523b3ef83604051620001eb91815260200190565b60405180910390a3505050565b634e487b7160e01b600052604160045260246000fd5b600082601f8301126200022057600080fd5b81516001600160401b03808211156200023d576200023d620001f8565b604051601f8301601f19908116603f01168101908282118183101715620002685762000268620001f8565b81604052838152602092508660208588010111156200028657600080fd5b600091505b83821015620002aa57858201830151818301840152908201906200028b565b6000602085830101528094505050505092915050565b600080600060608486031215620002d657600080fd5b83516001600160401b0380821115620002ee57600080fd5b620002fc878388016200020e565b945060208601519150808211156200031357600080fd5b5062000322868287016200020e565b925050604084015190509250925092565b600181811c908216806200034857607f821691505b6020821081036200036957634e487b7160e01b600052602260045260246000fd5b50919050565b601f821115620003bf576000816000526020600020601f850160051c810160208610156200039a5750805b601f850160051c820191505b81811015620003bb57828155600101620003a6565b5050505b505050565b81516001600160401b03811115620003e057620003e0620001f8565b620003f881620003f1845462000333565b846200036f565b602080601f831160018114620004305760008415620004175750858301515b600019600386901b1c1916600185901b178555620003bb565b600085815260208120601f198616915b82811015620004615788860151825594840194600190910190840162000440565b5085821015620004805787850151600019600388901b60f8161c191681555b5050505050600190811b01905550565b80820180821115620004b257634e487b7160e01b600052601160045260246000fd5b92915050565b61084e80620004c86000396000f3fe608060405234801561001057600080fd5b50600436106100a95760003560e01c806370a082311161007157806370a08231146101235780638da5cb5b1461014c57806394bf804d1461017757806395d89b411461018a578063a9059cbb14610192578063dd62ed3e146101a557600080fd5b806306fdde03146100ae578063095ea7b3146100cc57806318160ddd146100ef57806323b872dd14610101578063313ce56714610114575b600080fd5b6100b66101de565b6040516100c39190610674565b60405180910390f35b6100df6100da3660046106df565b610270565b60405190151581526020016100c3565b6002545b6040519081526020016100c3565b6100df61010f366004610709565b61028a565b604051601281526020016100c3565b6100f3610131366004610745565b6001600160a01b031660009081526020819052604090205490565b60055461015f906001600160a01b031681565b6040516001600160a01b0390911681526020016100c3565b6100f3610185366004610767565b6102ae565b6100b661032f565b6100df6101a03660046106df565b61033e565b6100f36101b3366004610793565b6001600160a01b03918216600090815260016020908152604080832093909416825291909152205490565b6060600380546101ed906107bd565b80601f0160208091040260200160405190810160405280929190818152602001828054610219906107bd565b80156102665780601f1061023b57610100808354040283529160200191610266565b820191906000526020600020905b81548152906001019060200180831161024957829003601f168201915b5050505050905090565b60003361027e81858561034c565b60019150505b92915050565b60003361029885828561035e565b6102a38585856103dc565b506001949350505050565b6005546000906001600160a01b0316331461031c5760405162461bcd60e51b8152602060048201526024808201527f4d696e742063616e206f6e6c792062652063616c6c656420627920746865206f6044820152633bb732b960e11b60648201526084015b60405180910390fd5b610326828461043b565b50600192915050565b6060600480546101ed906107bd565b60003361027e8185856103dc565b6103598383836001610475565b505050565b6001600160a01b0383811660009081526001602090815260408083209386168352929052205460001981146103d657818110156103c757604051637dc7a0d960e11b81526001600160a01b03841660048201526024810182905260448101839052606401610313565b6103d684848484036000610475565b50505050565b6001600160a01b03831661040657604051634b637e8f60e11b815260006004820152602401610313565b6001600160a01b0382166104305760405163ec442f0560e01b815260006004820152602401610313565b61035983838361054a565b6001600160a01b0382166104655760405163ec442f0560e01b815260006004820152602401610313565b6104716000838361054a565b5050565b6001600160a01b03841661049f5760405163e602df0560e01b815260006004820152602401610313565b6001600160a01b0383166104c957604051634a1406b160e11b815260006004820152602401610313565b6001600160a01b03808516600090815260016020908152604080832093871683529290522082905580156103d657826001600160a01b0316846001600160a01b03167f8c5be1e5ebec7d5bd14f71427d1e84f3dd0314c0f7b2291e5b200ac8c7c3b9258460405161053c91815260200190565b60405180910390a350505050565b6001600160a01b03831661057557806002600082825461056a91906107f7565b909155506105e79050565b6001600160a01b038316600090815260208190526040902054818110156105c85760405163391434e360e21b81526001600160a01b03851660048201526024810182905260448101839052606401610313565b6001600160a01b03841660009081526020819052604090209082900390555b6001600160a01b03821661060357600280548290039055610622565b6001600160a01b03821660009081526020819052604090208054820190555b816001600160a01b0316836001600160a01b03167fddf252ad1be2c89b69c2b068fc378daa952ba7f163c4a11628f55a4df523b3ef8360405161066791815260200190565b60405180910390a3505050565b60006020808352835180602085015260005b818110156106a257858101830151858201604001528201610686565b506000604082860101526040601f19601f8301168501019250505092915050565b80356001600160a01b03811681146106da57600080fd5b919050565b600080604083850312156106f257600080fd5b6106fb836106c3565b946020939093013593505050565b60008060006060848603121561071e57600080fd5b610727846106c3565b9250610735602085016106c3565b9150604084013590509250925092565b60006020828403121561075757600080fd5b610760826106c3565b9392505050565b6000806040838503121561077a57600080fd5b8235915061078a602084016106c3565b90509250929050565b600080604083850312156107a657600080fd5b6107af836106c3565b915061078a602084016106c3565b600181811c908216806107d157607f821691505b6020821081036107f157634e487b7160e01b600052602260045260246000fd5b50919050565b8082018082111561028457634e487b7160e01b600052601160045260246000fdfea26469706673582212209bd9d143ede3436d0e5af980f01f9a314d1533801144f445720fb3aee3ff059264736f6c63430008180033","linkReferences":{}},"methodIdentifiers":{"allowance(address,address)":"dd62ed3e","approve(address,uint256)":"095ea7b3","balanceOf(address)":"70a08231","decimals()":"313ce567","mint(uint256,address)":"94bf804d","name()":"06fdde03","owner()":"8da5cb5b","symbol()":"95d89b41","totalSupply()":"18160ddd","transfer(address,uint256)":"a9059cbb","transferFrom(address,address,uint256)":"23b872dd"},"id":33}