{"abi":[{"type":"function","name":"INITIAL_PRICE","inputs":[],"outputs":[{"name":"","type":"uint256","internalType":"uint256"}],"stateMutability":"view"},{"type":"function","name":"K","inputs":[],"outputs":[{"name":"","type":"uint256","internalType":"uint256"}],"stateMutability":"view"},{"type":"function","name":"addressToMemeTokenMapping","inputs":[{"name":"","type":"address","internalType":"address"}],"outputs":[{"name":"name","type":"string","internalType":"string"},{"name":"symbol","type":"string","internalType":"string"},{"name":"description","type":"string","internalType":"string"},{"name":"tokenImageUrl","type":"string","internalType":"string"},{"name":"fundingRaised","type":"uint256","internalType":"uint256"},{"name":"tokenAddress","type":"address","internalType":"address"},{"name":"creatorAddress","type":"address","internalType":"address"}],"stateMutability":"view"},{"type":"function","name":"buyMemeToken","inputs":[{"name":"memeTokenAddress","type":"address","internalType":"address"},{"name":"tokenQty","type":"uint256","internalType":"uint256"}],"outputs":[{"name":"","type":"uint256","internalType":"uint256"}],"stateMutability":"payable"},{"type":"function","name":"calculateCost","inputs":[{"name":"currentSupply","type":"uint256","internalType":"uint256"},{"name":"tokensToBuy","type":"uint256","internalType":"uint256"}],"outputs":[{"name":"","type":"uint256","internalType":"uint256"}],"stateMutability":"pure"},{"type":"function","name":"createMemeToken","inputs":[{"name":"name","type":"string","internalType":"string"},{"name":"symbol","type":"string","internalType":"string"},{"name":"imageUrl","type":"string","internalType":"string"},{"name":"description","type":"string","internalType":"string"}],"outputs":[{"name":"","type":"address","internalType":"address"}],"stateMutability":"payable"},{"type":"function","name":"getAllMemeTokens","inputs":[],"outputs":[{"name":"","type":"tuple[]","internalType":"struct RootFun.memeToken[]","components":[{"name":"name","type":"string","internalType":"string"},{"name":"symbol","type":"string","internalType":"string"},{"name":"description","type":"string","internalType":"string"},{"name":"tokenImageUrl","type":"string","internalType":"string"},{"name":"fundingRaised","type":"uint256","internalType":"uint256"},{"name":"tokenAddress","type":"address","internalType":"address"},{"name":"creatorAddress","type":"address","internalType":"address"}]}],"stateMutability":"view"},{"type":"function","name":"memeTokenAddresses","inputs":[{"name":"","type":"uint256","internalType":"uint256"}],"outputs":[{"name":"","type":"address","internalType":"address"}],"stateMutability":"view"}],"bytecode":{"object":"0x608060405234801561001057600080fd5b50612962806100206000396000f3fe608060405260043610620000855760003560e01c8063a932492f1162000054578063a932492f1462000148578063bcfeed9a1462000165578063ce394696146200018c578063e823bfd514620001b157600080fd5b8063075bb17d146200008a578063130da96014620000be57806313cb5ad614620000f85780637c5e2795146200011d575b600080fd5b620000a16200009b36600462001587565b620001c8565b6040516001600160a01b0390911681526020015b60405180910390f35b348015620000cb57600080fd5b50620000e3620000dd36600462001657565b620003d9565b604051620000b59796959493929190620016c6565b3480156200010557600080fd5b50620000a16200011736600462001745565b62000660565b3480156200012a57600080fd5b5062000139651b48eb57e00081565b604051908152602001620000b5565b3480156200015557600080fd5b5062000139661c6bf52634000081565b3480156200017257600080fd5b506200017d6200068b565b604051620000b591906200175f565b3480156200019957600080fd5b5062000139620001ab36600462001864565b62000a53565b62000139620001c236600462001887565b62000b2c565b6000655af3107a4000341015620002325760405162461bcd60e51b815260206004820152602360248201527f666565206e6f74207061696420666f72206d656d65746f6b656e20637265617460448201526234b7b760e91b60648201526084015b60405180910390fd5b6000858560646200024f670de0b6b3a7640000620f4240620018cc565b6200025c906014620018cc565b620002689190620018e6565b6040516200027690620014ce565b620002849392919062001909565b604051809103906000f080158015620002a1573d6000803e3d6000fd5b506040805160e0810182528881526020808201899052818301879052606082018890526000608083018190526001600160a01b03851660a084018190523360c08501528154600181810184557f290decd9548b62a8d60345a988386fc84ba6bc95484008f6362f93160ef3e56390910180546001600160a01b0319168317905590825290915291909120815192935083928291908190620003439082620019ce565b50602082015160018201906200035a9082620019ce565b5060408201516002820190620003719082620019ce565b5060608201516003820190620003889082620019ce565b506080820151600482015560a08201516005820180546001600160a01b03199081166001600160a01b039384161790915560c090930151600690920180549093169116179055509695505050505050565b600160205260009081526040902080548190620003f69062001943565b80601f0160208091040260200160405190810160405280929190818152602001828054620004249062001943565b8015620004755780601f10620004495761010080835404028352916020019162000475565b820191906000526020600020905b8154815290600101906020018083116200045757829003601f168201915b5050505050908060010180546200048c9062001943565b80601f0160208091040260200160405190810160405280929190818152602001828054620004ba9062001943565b80156200050b5780601f10620004df576101008083540402835291602001916200050b565b820191906000526020600020905b815481529060010190602001808311620004ed57829003601f168201915b505050505090806002018054620005229062001943565b80601f0160208091040260200160405190810160405280929190818152602001828054620005509062001943565b8015620005a15780601f106200057557610100808354040283529160200191620005a1565b820191906000526020600020905b8154815290600101906020018083116200058357829003601f168201915b505050505090806003018054620005b89062001943565b80601f0160208091040260200160405190810160405280929190818152602001828054620005e69062001943565b8015620006375780601f106200060b5761010080835404028352916020019162000637565b820191906000526020600020905b8154815290600101906020018083116200061957829003601f168201915b5050505060048301546005840154600690940154929390926001600160a01b0391821692501687565b600081815481106200067157600080fd5b6000918252602090912001546001600160a01b0316905081565b600080546060919067ffffffffffffffff811115620006ae57620006ae620014dc565b6040519080825280602002602001820160405280156200073457816020015b620007206040518060e00160405280606081526020016060815260200160608152602001606081526020016000815260200160006001600160a01b0316815260200160006001600160a01b031681525090565b815260200190600190039081620006cd5790505b50905060005b60005481101562000a4d57600160008083815481106200075e576200075e62001a9b565b60009182526020808320909101546001600160a01b031683528201929092526040908101909120815160e081019092528054829082906200079f9062001943565b80601f0160208091040260200160405190810160405280929190818152602001828054620007cd9062001943565b80156200081e5780601f10620007f2576101008083540402835291602001916200081e565b820191906000526020600020905b8154815290600101906020018083116200080057829003601f168201915b50505050508152602001600182018054620008399062001943565b80601f0160208091040260200160405190810160405280929190818152602001828054620008679062001943565b8015620008b85780601f106200088c57610100808354040283529160200191620008b8565b820191906000526020600020905b8154815290600101906020018083116200089a57829003601f168201915b50505050508152602001600282018054620008d39062001943565b80601f0160208091040260200160405190810160405280929190818152602001828054620009019062001943565b8015620009525780601f10620009265761010080835404028352916020019162000952565b820191906000526020600020905b8154815290600101906020018083116200093457829003601f168201915b505050505081526020016003820180546200096d9062001943565b80601f01602080910402602001604051908101604052809291908181526020018280546200099b9062001943565b8015620009ec5780601f10620009c057610100808354040283529160200191620009ec565b820191906000526020600020905b815481529060010190602001808311620009ce57829003601f168201915b50505091835250506004820154602082015260058201546001600160a01b039081166040830152600690920154909116606090910152825183908390811062000a395762000a3962001a9b565b60209081029190910101526001016200073a565b50919050565b600080670de0b6b3a764000062000a6b848662001ab1565b62000a7e90661c6bf526340000620018cc565b62000a8a9190620018e6565b90506000670de0b6b3a764000062000aaa86661c6bf526340000620018cc565b62000ab69190620018e6565b9050600062000ac5836200101f565b9050600062000ad4836200101f565b90506000661c6bf52634000062000aec838562001ac7565b62000b06651b48eb57e000670de0b6b3a7640000620018cc565b62000b129190620018cc565b62000b1e9190620018e6565b955050505050505b92915050565b6001600160a01b0382811660009081526001602052604081206005015490911662000b905760405162461bcd60e51b8152602060048201526013602482015272151bdad95b881a5cc81b9bdd081b1a5cdd1959606a1b604482015260640162000229565b6001600160a01b03831660009081526001602052604090206004810154849068014d1120d7b1600000101562000c095760405162461bcd60e51b815260206004820152601f60248201527f46756e64696e672068617320616c7265616479206265656e2072616973656400604482015260640162000229565b6000816001600160a01b03166318160ddd6040518163ffffffff1660e01b8152600401602060405180830381865afa15801562000c4a573d6000803e3d6000fd5b505050506040513d601f19601f8201168201806040525081019062000c70919062001add565b905062000cb36040518060400160405280601b81526020017f43757272656e7420737570706c79206f6620746f6b656e206973200000000000815250826200109c565b60408051808201909152601781527f4d617820737570706c79206f6620746f6b656e20697320000000000000000000602082015262000d099062000d03670de0b6b3a7640000620f4240620018cc565b6200109c565b60008162000d23670de0b6b3a7640000620f4240620018cc565b62000d2f919062001ac7565b905062000d726040518060400160405280601b81526020017f51747920617661696c61626c6520666f72207075726368617365200000000000815250826200109c565b600062000d88670de0b6b3a764000083620018e6565b9050600062000da0670de0b6b3a764000089620018cc565b90508188111562000df45760405162461bcd60e51b815260206004820152601b60248201527f4e6f7420656e6f75676820617661696c61626c6520737570706c790000000000604482015260640162000229565b6000670de0b6b3a7640000606462000e1082620f4240620018cc565b62000e1d906014620018cc565b62000e299190620018e6565b62000e35908762001ac7565b62000e419190620018e6565b9050600062000e51828b62000a53565b905062000e786040518060600160405280602b815260200162002902602b9139826200109c565b8034101562000eca5760405162461bcd60e51b815260206004820152601b60248201527f496e636f72726563742076616c7565206f66204554482073656e740000000000604482015260640162000229565b3488600401600082825462000ee0919062001ab1565b9091555050600488015468014d1120d7b16000001162000f9957600062000f078c620010e9565b905062000f3a6040518060400160405280600d81526020016c02837b7b61030b2323932b9b99609d1b8152508262001210565b6000606462000f55670de0b6b3a7640000620f4240620018cc565b62000f62906014620018cc565b62000f6e9190620018e6565b60048b0154909150600062000f858f848462001259565b905062000f9384826200139d565b50505050505b6040516394bf804d60e01b8152600481018490523360248201526001600160a01b038816906394bf804d906044016020604051808303816000875af115801562000fe7573d6000803e3d6000fd5b505050506040513d601f19601f820116820180604052508101906200100d919062001add565b5060019b9a5050505050505050505050565b6000670de0b6b3a7640000808360015b6014811162001092576200104c81670de0b6b3a7640000620018cc565b620010588385620018cc565b620010649190620018e6565b925062001072838562001ab1565b935060018310620010925780620010898162001af7565b9150506200102f565b5091949350505050565b620010e58282604051602401620010b592919062001b13565b60408051601f198184030181529190526020810180516001600160e01b0316632d839cb360e21b17905262001458565b5050565b600080735c69bee701ef814a2b6a3edd4b1652cb9cc5aa6f90506000737a250d5630b4cf539739df2c5dacb4c659f2488d90506000826001600160a01b031663c9c6539686846001600160a01b031663ad5c46486040518163ffffffff1660e01b8152600401602060405180830381865afa1580156200116d573d6000803e3d6000fd5b505050506040513d601f19601f8201168201806040525081019062001193919062001b37565b6040516001600160e01b031960e085901b1681526001600160a01b039283166004820152911660248201526044016020604051808303816000875af1158015620011e1573d6000803e3d6000fd5b505050506040513d601f19601f8201168201806040525081019062001207919062001b37565b95945050505050565b620010e582826040516024016200122992919062001b57565b60408051601f198184030181529190526020810180516001600160e01b031663319af33360e01b17905262001458565b60405163095ea7b360e01b8152737a250d5630b4cf539739df2c5dacb4c659f2488d60048201526024810183905260009084906001600160a01b0382169063095ea7b3906044016020604051808303816000875af1158015620012c0573d6000803e3d6000fd5b505050506040513d601f19601f82011682018060405250810190620012e6919062001b83565b5060405163f305d71960e01b81526001600160a01b03861660048201526024810185905260448101859052606481018490523060848201524260a4820152737a250d5630b4cf539739df2c5dacb4c659f2488d90600090829063f305d71990879060c40160606040518083038185885af115801562001369573d6000803e3d6000fd5b50505050506040513d601f19601f8201168201806040525081019062001390919062001ba7565b9998505050505050505050565b60405163a9059cbb60e01b8152600060048201819052602482018390529083906001600160a01b0382169063a9059cbb906044016020604051808303816000875af1158015620013f1573d6000803e3d6000fd5b505050506040513d601f19601f8201168201806040525081019062001417919062001b83565b506200144e60405180604001604052806013815260200172155b9a481d8c881d1bdad95b9cc8189d5c9b9d606a1b81525062001466565b5060019392505050565b6200146381620014ad565b50565b62001463816040516024016200147d919062001bd6565b60408051601f198184030181529190526020810180516001600160e01b031663104c13eb60e21b17905262001458565b60006a636f6e736f6c652e6c6f679050600080835160208501845afa505050565b610d168062001bec83390190565b634e487b7160e01b600052604160045260246000fd5b600082601f8301126200150457600080fd5b813567ffffffffffffffff80821115620015225762001522620014dc565b604051601f8301601f19908116603f011681019082821181831017156200154d576200154d620014dc565b816040528381528660208588010111156200156757600080fd5b836020870160208301376000602085830101528094505050505092915050565b600080600080608085870312156200159e57600080fd5b843567ffffffffffffffff80821115620015b757600080fd5b620015c588838901620014f2565b95506020870135915080821115620015dc57600080fd5b620015ea88838901620014f2565b945060408701359150808211156200160157600080fd5b6200160f88838901620014f2565b935060608701359150808211156200162657600080fd5b506200163587828801620014f2565b91505092959194509250565b6001600160a01b03811681146200146357600080fd5b6000602082840312156200166a57600080fd5b8135620016778162001641565b9392505050565b6000815180845260005b81811015620016a65760208185018101518683018201520162001688565b506000602082860101526020601f19601f83011685010191505092915050565b60e081526000620016db60e083018a6200167e565b8281036020840152620016ef818a6200167e565b905082810360408401526200170581896200167e565b905082810360608401526200171b81886200167e565b608084019690965250506001600160a01b0392831660a0820152911660c090910152949350505050565b6000602082840312156200175857600080fd5b5035919050565b600060208083018184528085518083526040925060408601915060408160051b87010184880160005b838110156200185657603f19898403018552815160e08151818652620017b1828701826200167e565b915050888201518582038a870152620017cb82826200167e565b9150508782015185820389870152620017e582826200167e565b915050606080830151868303828801526200180183826200167e565b6080858101519089015260a0808601516001600160a01b03169089015260c094850151949093509150620018419050818701846001600160a01b03169052565b50958801959350509086019060010162001788565b509098975050505050505050565b600080604083850312156200187857600080fd5b50508035926020909101359150565b600080604083850312156200189b57600080fd5b8235620018a88162001641565b946020939093013593505050565b634e487b7160e01b600052601160045260246000fd5b808202811582820484141762000b265762000b26620018b6565b6000826200190457634e487b7160e01b600052601260045260246000fd5b500490565b6060815260006200191e60608301866200167e565b82810360208401526200193281866200167e565b915050826040830152949350505050565b600181811c908216806200195857607f821691505b60208210810362000a4d57634e487b7160e01b600052602260045260246000fd5b601f821115620019c9576000816000526020600020601f850160051c81016020861015620019a45750805b601f850160051c820191505b81811015620019c557828155600101620019b0565b5050505b505050565b815167ffffffffffffffff811115620019eb57620019eb620014dc565b62001a0381620019fc845462001943565b8462001979565b602080601f83116001811462001a3b576000841562001a225750858301515b600019600386901b1c1916600185901b178555620019c5565b600085815260208120601f198616915b8281101562001a6c5788860151825594840194600190910190840162001a4b565b508582101562001a8b5787850151600019600388901b60f8161c191681555b5050505050600190811b01905550565b634e487b7160e01b600052603260045260246000fd5b8082018082111562000b265762000b26620018b6565b8181038181111562000b265762000b26620018b6565b60006020828403121562001af057600080fd5b5051919050565b60006001820162001b0c5762001b0c620018b6565b5060010190565b60408152600062001b2860408301856200167e565b90508260208301529392505050565b60006020828403121562001b4a57600080fd5b8151620016778162001641565b60408152600062001b6c60408301856200167e565b905060018060a01b03831660208301529392505050565b60006020828403121562001b9657600080fd5b815180151581146200167757600080fd5b60008060006060848603121562001bbd57600080fd5b8351925060208401519150604084015190509250925092565b6020815260006200167760208301846200167e56fe60806040523480156200001157600080fd5b5060405162000d1638038062000d168339810160408190526200003491620002c0565b82826003620000448382620003c4565b506004620000538282620003c4565b5050506200006833826200008360201b60201c565b5050600580546001600160a01b0319163317905550620004b8565b6001600160a01b038216620000b35760405163ec442f0560e01b8152600060048201526024015b60405180910390fd5b620000c160008383620000c5565b5050565b6001600160a01b038316620000f4578060026000828254620000e8919062000490565b90915550620001689050565b6001600160a01b03831660009081526020819052604090205481811015620001495760405163391434e360e21b81526001600160a01b03851660048201526024810182905260448101839052606401620000aa565b6001600160a01b03841660009081526020819052604090209082900390555b6001600160a01b0382166200018657600280548290039055620001a5565b6001600160a01b03821660009081526020819052604090208054820190555b816001600160a01b0316836001600160a01b03167fddf252ad1be2c89b69c2b068fc378daa952ba7f163c4a11628f55a4df523b3ef83604051620001eb91815260200190565b60405180910390a3505050565b634e487b7160e01b600052604160045260246000fd5b600082601f8301126200022057600080fd5b81516001600160401b03808211156200023d576200023d620001f8565b604051601f8301601f19908116603f01168101908282118183101715620002685762000268620001f8565b81604052838152602092508660208588010111156200028657600080fd5b600091505b83821015620002aa57858201830151818301840152908201906200028b565b6000602085830101528094505050505092915050565b600080600060608486031215620002d657600080fd5b83516001600160401b0380821115620002ee57600080fd5b620002fc878388016200020e565b945060208601519150808211156200031357600080fd5b5062000322868287016200020e565b925050604084015190509250925092565b600181811c908216806200034857607f821691505b6020821081036200036957634e487b7160e01b600052602260045260246000fd5b50919050565b601f821115620003bf576000816000526020600020601f850160051c810160208610156200039a5750805b601f850160051c820191505b81811015620003bb57828155600101620003a6565b5050505b505050565b81516001600160401b03811115620003e057620003e0620001f8565b620003f881620003f1845462000333565b846200036f565b602080601f831160018114620004305760008415620004175750858301515b600019600386901b1c1916600185901b178555620003bb565b600085815260208120601f198616915b82811015620004615788860151825594840194600190910190840162000440565b5085821015620004805787850151600019600388901b60f8161c191681555b5050505050600190811b01905550565b80820180821115620004b257634e487b7160e01b600052601160045260246000fd5b92915050565b61084e80620004c86000396000f3fe608060405234801561001057600080fd5b50600436106100a95760003560e01c806370a082311161007157806370a08231146101235780638da5cb5b1461014c57806394bf804d1461017757806395d89b411461018a578063a9059cbb14610192578063dd62ed3e146101a557600080fd5b806306fdde03146100ae578063095ea7b3146100cc57806318160ddd146100ef57806323b872dd14610101578063313ce56714610114575b600080fd5b6100b66101de565b6040516100c39190610674565b60405180910390f35b6100df6100da3660046106df565b610270565b60405190151581526020016100c3565b6002545b6040519081526020016100c3565b6100df61010f366004610709565b61028a565b604051601281526020016100c3565b6100f3610131366004610745565b6001600160a01b031660009081526020819052604090205490565b60055461015f906001600160a01b031681565b6040516001600160a01b0390911681526020016100c3565b6100f3610185366004610767565b6102ae565b6100b661032f565b6100df6101a03660046106df565b61033e565b6100f36101b3366004610793565b6001600160a01b03918216600090815260016020908152604080832093909416825291909152205490565b6060600380546101ed906107bd565b80601f0160208091040260200160405190810160405280929190818152602001828054610219906107bd565b80156102665780601f1061023b57610100808354040283529160200191610266565b820191906000526020600020905b81548152906001019060200180831161024957829003601f168201915b5050505050905090565b60003361027e81858561034c565b60019150505b92915050565b60003361029885828561035e565b6102a38585856103dc565b506001949350505050565b6005546000906001600160a01b0316331461031c5760405162461bcd60e51b8152602060048201526024808201527f4d696e742063616e206f6e6c792062652063616c6c656420627920746865206f6044820152633bb732b960e11b60648201526084015b60405180910390fd5b610326828461043b565b50600192915050565b6060600480546101ed906107bd565b60003361027e8185856103dc565b6103598383836001610475565b505050565b6001600160a01b0383811660009081526001602090815260408083209386168352929052205460001981146103d657818110156103c757604051637dc7a0d960e11b81526001600160a01b03841660048201526024810182905260448101839052606401610313565b6103d684848484036000610475565b50505050565b6001600160a01b03831661040657604051634b637e8f60e11b815260006004820152602401610313565b6001600160a01b0382166104305760405163ec442f0560e01b815260006004820152602401610313565b61035983838361054a565b6001600160a01b0382166104655760405163ec442f0560e01b815260006004820152602401610313565b6104716000838361054a565b5050565b6001600160a01b03841661049f5760405163e602df0560e01b815260006004820152602401610313565b6001600160a01b0383166104c957604051634a1406b160e11b815260006004820152602401610313565b6001600160a01b03808516600090815260016020908152604080832093871683529290522082905580156103d657826001600160a01b0316846001600160a01b03167f8c5be1e5ebec7d5bd14f71427d1e84f3dd0314c0f7b2291e5b200ac8c7c3b9258460405161053c91815260200190565b60405180910390a350505050565b6001600160a01b03831661057557806002600082825461056a91906107f7565b909155506105e79050565b6001600160a01b038316600090815260208190526040902054818110156105c85760405163391434e360e21b81526001600160a01b03851660048201526024810182905260448101839052606401610313565b6001600160a01b03841660009081526020819052604090209082900390555b6001600160a01b03821661060357600280548290039055610622565b6001600160a01b03821660009081526020819052604090208054820190555b816001600160a01b0316836001600160a01b03167fddf252ad1be2c89b69c2b068fc378daa952ba7f163c4a11628f55a4df523b3ef8360405161066791815260200190565b60405180910390a3505050565b60006020808352835180602085015260005b818110156106a257858101830151858201604001528201610686565b506000604082860101526040601f19601f8301168501019250505092915050565b80356001600160a01b03811681146106da57600080fd5b919050565b600080604083850312156106f257600080fd5b6106fb836106c3565b946020939093013593505050565b60008060006060848603121561071e57600080fd5b610727846106c3565b9250610735602085016106c3565b9150604084013590509250925092565b60006020828403121561075757600080fd5b610760826106c3565b9392505050565b6000806040838503121561077a57600080fd5b8235915061078a602084016106c3565b90509250929050565b600080604083850312156107a657600080fd5b6107af836106c3565b915061078a602084016106c3565b600181811c908216806107d157607f821691505b6020821081036107f157634e487b7160e01b600052602260045260246000fd5b50919050565b8082018082111561028457634e487b7160e01b600052601160045260246000fdfea26469706673582212209bd9d143ede3436d0e5af980f01f9a314d1533801144f445720fb3aee3ff059264736f6c6343000818003345544820726571756972656420666f722070757263686173696e67206d656d6520746f6b656e7320697320a264697066735822122066c1db83b346da80b19302b9d4b6f4630fb8edf108ada8cead270976b660fa7c64736f6c63430008180033","linkReferences":{}},"methodIdentifiers":{"INITIAL_PRICE()":"7c5e2795","K()":"a932492f","addressToMemeTokenMapping(address)":"130da960","buyMemeToken(address,uint256)":"e823bfd5","calculateCost(uint256,uint256)":"ce394696","createMemeToken(string,string,string,string)":"075bb17d","getAllMemeTokens()":"bcfeed9a","memeTokenAddresses(uint256)":"13cb5ad6"},"id":32}